:02000004C0D06A
:1000000010B58CB062B61C48FC2104F0DFF904F096
:100010003DF901F019FC6C46204604F09BFAA085DE
:100020001649084215D06C460020A0850A9802F0B7
:10003000BFFC02F0B1FCA04202D10A9802F0B8FC69
:100040006846808D002814D101F0DAFB00200CB046
:1000500010BD684602F0ACFC0A9001F061FD002082
:1000600004F072F8012004F06FF800F047F900F096
:100070007FFB01F023FCC046041B0020FFFF0000B3
:1000800070B582B004781425052C07DC022C0DDD38
:10009000032C1DD0042C1DD1302512E0082C0BDCC4
:1000A000A51F022D0CD3082C0AD017E0012C08D074
:1000B000022C13D11C2504E0092C01D00B2C0DD1EE
:1000C0008568069C6E4630C602F018FB02B070BD13
:1000D0002025F6E7052C01D14025F2E7022001F0AA
:1000E000EDFB80B50146202028290BDD2C2915DDEC
:1000F00041292ADD42292DD061292AD062292BD11C
:10010000382080BD0A46242910DC213A022A20D357
:10011000232909D024291FD1422080BD2A290EDCA1
:10012000292901D02A2917D1302080BD253A022A59
:100130000FD3272901D028290ED1282080BD2B29B3
:1001400001D02C2908D1402080BD2D2901D0412982
:1001500002D180BD392080BD022001F0AFFBF0B597
:1001600087B01C4615460E4607463878FFF7B9FF9C
:1001700010996A4651614000083010610F98D060B4
:100180000E9890600D9850600C981060384631467B
:100190002A46234602F01AFB07B0F0BDF0B585B041
:1001A0001C4615460E4607463878FFF79AFF0C990D
:1001B0006A46D1604000083090600B9850600A9801
:1001C0001060384631462A46234602F0E7FA05B069
:1001D000F0BDF0B583B01E4602920D4607460720DB
:1001E00004032C403878FFF77CFF01210A03944276
:1001F00005D04A0394420FD143000B4302E0430071
:100200000B43184669460E60486038462946029AF4
:1002100002F0F8FA03B0F0BD022001F04FFB00003D
:1002200010B5044661780120002912D0022904D0BB
:10023000012905D17D20000100E0064801F05CFDA8
:10024000054802686078431E012000219A4200D0D0
:10025000084610BDB80B0000FC1A0020F0B587B0AE
:10026000069303460B2944D2202010700120002958
:1002700035D00698801E0390012000261E4C7C4439
:10028000019402900491C1B25018069C611A029C1C
:10029000E70705931D6814462B46BB43019A02F0FD
:1002A00027F827462046069904F0A2F9C1B2039A1E
:1002B00091421BDA002D01DB3A4603E027233A4640
:1002C0005354401CC1B22F235354401CC1B20023CD
:1002D0005354059B1B1D761C04998E42D3D3C0B288
:1002E000401E00211154C0B207B0F0BD032001F040
:1002F000E5FA022001F0E2FA0D440000F0B581B009
:100300002C252A4E032070556421705429487844C6
:10031000B062274800270760274878443763706336
:10032000B7663046643002F0DDFA0424204602F05D
:100330004BFBB06601F00EFC01F00EFCF78420468A
:1003400002F042FBB06600282ED097282CD0B06A6D
:10035000002829D0F08CAA24715D80B2884223D273
:1003600002F0FEFA00281FD102F070FAA04203D179
:1003700002F0ACFAA04217D1B06AF18C49014018E2
:10038000316B002902D08847002807D0012803D10B
:10039000B06AF18C4901401801F038FCF08C401C27
:1003A000F084B16A0029D7D101B0F0BD041B002050
:1003B000001B00208E4300009F00000080B5044910
:1003C000884202D1002002F0B3FA002080BDC0466E
:1003D00001000080F0B5A1B0E7205B4C205C002854
:1003E00006D02146EA3111A8202201F032FA0CE0B1
:1003F000E820205C002808D111AA68460260204647
:100400002C3001210023FFF73BFEE4200590205C07
:100410002578412810D10C206946C8604D487844A1
:1004200088600020486019A80860221D0120412131
:100430002B4602F027FA07E000216A461160211DD1
:1004400019AB2A4602F00EFA059D605D19AF202611
:1004500007AB3946324602F081F9002438463A4F5C
:100460002146324601F00BFA785D412814D1E8208C
:10047000385C00282AD023200001385800216A4621
:100480001161324BD360916003C2132000013B180D
:1004900007A80121052225E0069406AF684687607B
:1004A0002A494160066007A82949032211ABFFF7DA
:1004B00075FE06463878C007254605D02348024613
:1004C00010780121014311701F4F0FE00020694691
:1004D00008611E4ACA60886048600E6007A8012152
:1004E000052211ABFFF73BFE06462546E920385CA6
:1004F00000280FD00598385C3946983107AA0123A7
:1005000002F03CF911488019A0374122394601F028
:10051000A0F9413607A82822294601F0B0F919A808
:1005200020242946224601F0AAF908489021815545
:1005300080194570B01C81B2204601F013FCFFF712
:10054000DDFE284621B0F0BDC8180020801C002028
:100550000106000070420000F0B597B0E426254C7B
:10056000A05D2578412810D10C206946C860234839
:1005700078448860002048600FA80860221D012090
:1005800041212B4602F07EF907E000216A46116006
:10059000211D0FAB2A4602F065F9A05D0FA9049159
:1005A000202505AF2A463B4602F0D8F8012001037A
:1005B000A034114B38462246FFF70BFE06460024B6
:1005C00028223846214601F05AF9049821462A4645
:1005D00001F055F990200849885588194470B01CDD
:1005E00081B2284601F0BEFBFFF788FE204617B017
:1005F000F0BDC046C8180020801C00201E4100002D
:1006000080B50B4988420ED00A4988420DD10A486C
:1006100085214170692101702020022101F0A2FB97
:10062000FFF76CFE01E0FFF7D5FE002080BDC0465D
:100630000200008001000080801C002080B50B4972
:1006400088420ED00A4988420DD10A48852141705E
:10065000692101702020022101F084FBFFF74EFE8A
:1006600001E0FFF7B7FE002080BDC0460200008019
:1006700001000080801C002080B50B4988420ED00C
:100680000A4988420DD10A488521417069210170CB
:100690002020022101F066FBFFF730FE01E0FFF7AA
:1006A0005BFF002080BDC04602000080010000808A
:1006B000801C0020B0B50B4D41222A70681C0A49ED
:1006C000A03101F0C6F8432000242C544220902190
:1006D00029542020442101F045FBFFF70FFE20465E
:1006E000B0BDC046801C0020C818002080B50B4952
:1006F00088420ED00A4988420DD10A4885214170AE
:10070000692101702020022101F02CFBFFF7F6FD8A
:1007100001E0FFF7CFFF002080BDC046020000804F
:1007200001000080801C0020B0B50546072028404D
:100730000024012814D0022814D1002909D00B4824
:1007400002F002F968B200280ADA01F0BFFF0024C3
:1007500006E0FF2152310548002202F00DF904465F
:100760002046B0BD022001F0A9F8C046801C002040
:10077000F0B5B9B00024389437943694AA20159077
:10078000ED4F169435A80480264629AC204603F088
:10079000E1FE0546A585E948054213D029A88685CE
:1007A000339802F005F90F200003284009210903BE
:1007B0008842344603D003214903884242D135A8F8
:1007C000058046E029A802F0F3F837993891002413
:1007D0003794339036983899C0B289B201F0C2FA92
:1007E0003890149436943898002801D100F01EFDFA
:1007F000387815992A39C9B2884201D000F01BFD1A
:100800007878072832DC022800D199E1042800D04A
:10081000E0E1F8787F2101401391491EC9B2C00977
:100820000229E44B01D300F0FDFC3E79B9780029A0
:1008300000D1ADE2012901D000F0F4FCE520185C04
:100840007A1DCAE3DC4805400D20C002284335A9C3
:1008500008803598000A379978543598379979186F
:1008600048703798801C379000F0C8FC082800D1E9
:10087000B5E00A28CF4B01D000F0E1FCB8780028A1
:1008800001D000F0CFFCF978481EC0B2022801D395
:1008900000F0C8FC3D7978791870421ED2B20A2A5D
:1008A00001D300F0BBFCBA1D1C1D83006D1E167821
:1008B000360657783F043743967836023E43D7785A
:1008C000374380C4121D401EF1D1E81A412801D0DF
:1008D00000F0BEFC22204122012900D01046E42174
:1008E000B44C6054B24FF918891D2346983301F077
:1008F00025FF2178201D159A1E32D3B2AF4AFFF78B
:10090000ADFC2C2108910520AD4E705464200321CC
:100910003154AC487844B062AB487844149D356398
:100920007063B5663046643001F0DCFF0424204675
:1009300002F04AF8B06601F00DF901F00DF9F58406
:10094000089D204602F040F8B0660028169C01D1B0
:1009500000F050FC972801D100F04CFC9848806AC8
:10096000002801D100F046FC9548C08C9449495DAF
:1009700080B2884201D300F03DFC01F0F1FF002875
:1009800001D000F037FC01F061FF1599884206D1D3
:1009900001F09CFF1599884201D000F02BFC88489B
:1009A0000246906AD18C49014018116B002902D08F
:1009B0008847002809D0012805D181480146886A66
:1009C000C98C4901401801F021F97D480146C88CC5
:1009D000401CC884896A0029C8D100F00BFCB87893
:1009E0000028744B01D000F01DFCFC78601EC0B2E2
:1009F000022801D300F016FC3D7979791970481E60
:100A0000C0B20A2801D300F009FCBA1D1B1D8800E2
:100A10006D1E1678360657783F04374396783602AF
:100A20003E43D778374380C3121D491EF1D1291A9E
:100A3000202901D000F00CFCE9215E4A1346149AEB
:100A40005A54E72101225A54594F3818811D18462B
:100A5000EA30202200F0FDFE22204121012C00D0AE
:100A60000846E421534A50542C2107910520544E46
:100A7000705464200321315454487844B06254487F
:100A80007844149D35637063B5663046643001F078
:100A900029FF0424204601F097FFB06601F05AF8C0
:100AA00001F05AF8F584079D204601F08DFFB066ED
:100AB0000028169C00D19DE3972800D19AE3404876
:100AC000806A002800D195E33D48C08C3C49495DCF
:100AD00080B2884200D38DE301F042FF002800D0AD
:100AE00088E301F0B3FE1599884205D101F0EEFECE
:100AF0001599884200D07DE331480246906AD18C36
:100B000049014018116B002902D08847002809D0FC
:100B1000012805D12A480146886AC98C4901401834
:100B200001F074F826480146C88C401CC884896AC4
:100B30000029CBD15EE3C046801C0020FFFF0000EF
:100B40007B791C480370581EC0B20A2800D365E3A5
:100B5000B878002800D065E3F878411EC9B20229B0
:100B600000D35FE3B91D134A121D1C460D782D06F4
:100B70004E7836042E438D782D023543CE782E43A1
:100B800040C2091D641EF1D122254121012800D057
:100B90000D46012863D1002069460860E8B2054E81
:100BA000311D21AC1A46234601F05CFE67E0C046C9
:100BB000801C0020C8180020FF070000001800203B
:100BC000041B0020084000005BFDFFFF023E000008
:100BD000B9FBFFFF062800D036E30220159E5536EC
:100BE000FC78611EC9B2022900D31BE33D563B7954
:100BF0007F2028407A1D01280F9500D17DE2002832
:100C000000D00FE37879D24A1070411EC9B20A2988
:100C100000D303E3B91D121D85000B955B1E0A93DB
:100C20000B781B064F783F041F438B781B023B4316
:100C3000CF781F4380C2091D401EF1D1C44D284604
:100C40002C3001F06FFDE72014992954E820295237
:100C50000B980A9A131ABF4F3818821D4FE20C20C6
:100C60006946C860BC48784488600020486021A874
:100C70000860B74E321D0120412101F003FEEDB2A4
:100C800021AF2022059217AC28463946234601F0B1
:100C900065FD3146983101232846224601F06EFD5C
:100CA000002528222046294600F0E9FD384629463D
:100CB000059A00F0E4FD3178301D159A1E32D3B24A
:100CC000A64AFFF7CBFA2C260520A54FB85564207D
:100CD00003213954A3487844B862A34878443D635B
:100CE0007863BD663846643001F0FCFD042420467C
:100CF00001F06AFEB86600F02DFF00F02DFFFD84C4
:100D0000204601F061FEB8660028169C914F00D184
:100D100070E2972800D16DE29148806A002800D1E6
:100D200068E28F48C08C8E49895D80B2884200D3CA
:100D300060E201F015FE002800D05BE201F086FDC4
:100D40001599884205D101F0C1FD1599884200D05E
:100D500050E283480246906AD18C49014018116BD9
:100D6000002902D08847002809D0012805D17C48F5
:100D70000146886AC98C4901401800F047FF78484D
:100D80000146C88C401CC884896A0029CBD131E255
:100D90001A467B791370591EC9B20A2900D33DE265
:100DA000BC1D151D9900721E2678360667783F0413
:100DB0003743A67836023E43E778374380C5241D83
:100DC0005B1EF1D1E923624CE0540120139B022BFE
:100DD000149D00D02846E8235D4CE0542346232090
:100DE00000011D50561A5B4F7818821D1398022877
:100DF00006D018462C30144601F094FC2246544B81
:100E0000E52100205854E6215852872149005854C2
:100E10004B2189005850E0E0C0B2062800D3FDE124
:100E2000E6201090185C002871D1119287204000B4
:100E30000D90195C5818852252000C9280180422DB
:100E4000551A1296AE421E4600D8129DEFB2119C62
:100E500021463A4600F0FDFCE820305C002832468E
:100E600014D0232006019059C119090A00D0D5E1F8
:100E70001018132109014018119C21463A4600F030
:100E8000E8FCF84B9859C019985109E06846149944
:100E9000016010462C3022463B46FFF7F1F8F14B3B
:100EA0000D99585C28185854129EF61BE419C0B2CC
:100EB0000428224626D1144601200A461099585487
:100EC000149898540C98185C0006FF210A460C32BE
:100ED0009A5C1204024343208000185C030213430F
:100EE0000E31E048405C1843DE4B11210901585097
:100EF000E5229A5C032A01D0002A01D1401C5850F7
:100F0000224604E01098185C0028D54F63D01120C9
:100F100005015F59BE4200D83746E820185C00281A
:100F2000129611920E9521D0232004011859C1194F
:100F3000090A00D072E1181813210901401811465E
:100F40003A4600F086FCC74B1859C019185116E0F4
:100F5000C8180020801C0020283A0000001800203B
:100F6000041B0020263A00000DFAFFFF6846149982
:100F7000016018462C303B46FFF782F8B94B4B20F6
:100F80008600E525585D012814D19859132811D8F9
:100F9000129941181422141A142900D8129C4520C1
:100FA000800018181199224600F053FCAD4B985957
:100FB000001998510E995858C01B5850129EF61B94
:100FC000119AD219002805D1149810995854585DD7
:100FD000401C5855A24FE520185C002E00D01BE79E
:100FE000062800D038E1E620185C002800D015E182
:100FF00022204121139A012A00D00846E4215854A6
:101000004B2080001858181845218900149D45541C
:101010001978181D159A1E32D3B2934AFFF71EF99C
:101020002C2109910720914E7054642003213154E2
:101030008F48056002208F4908608F487844B0626D
:101040008E4878448E49794431637063B566304682
:10105000643001F047FC0424204601F0B5FCB06682
:1010600000F078FD00F078FDF584099D204601F040
:10107000ABFCB0660028169C00D1BBE0972800D1DD
:10108000B8E07A48806A002800D1B3E07748C08C85
:101090007649495D80B2884200D3ABE001F060FC44
:1010A000002800D0A6E001F0D1FB1599884205D1B7
:1010B00001F00CFC1599884200D09BE06B48024679
:1010C000906AD18C49014018116B002902D08847E1
:1010D000002809D0012805D164480146886AC98CD6
:1010E0004901401800F092FD60480146C88C401C40
:1010F000C884896A0029CBD17CE05A4D149976B214
:10110000684601602C352846FEF7BAFF0F98B042BA
:1011100000DDA1E022204121012C00D00846E4217D
:10112000504A50541178101D159A1E32D3B24E4AAF
:10113000FFF794F82C21069105204C4E7054642042
:10114000032131544F487844B0624F487844149D8D
:1011500035637063B5663046643001F0C3FB042428
:10116000204601F031FCB06600F0F4FC00F0F4FC25
:10117000F584069D204601F027FCB0660028169CE9
:1011800038D0972836D03948806A002832D037487E
:10119000C08C3649495D80B288422BD201F0E0FB19
:1011A000002827D101F052FB1599884204D101F0A3
:1011B0008DFB159988421DD12C480246906AD18C2E
:1011C00049014018116B002902D08847002809D036
:1011D000012805D125480146886AC98C4901401873
:1011E00000F014FD21480146C88C401CC884896A5F
:1011F0000029CED1102036990143369101F0CCFB65
:1012000029A9884202D1339801F0D2FB29A8808D08
:10121000002801D1FFF7B6FA00F050FBD520C0013D
:1012200000F04CFB6B20000200F048FBD520C00111
:10123000FE3800F043FB3720400200F03FFBFF2860
:1012400002D1002001F074FB6D20000200F036FB9B
:101250006720000200F032FB0920000300F02EFBA3
:10126000801C0020C818002000180020041B00204B
:10127000FC1A0020001B002060370000BBF5FFFFB8
:10128000D7F1FFFF36370000EDF4FFFFF0B581B076
:10129000F24D28780C2805DC05285DD00C2800D1FB
:1012A0004DE20BE10D2800D1AFE00E2800D005E1A2
:1012B0006427EB4D0120E8550026AE6628466430D1
:1012C00001F010FB042001F07FFB0446AC66692CA2
:1012D00000D046E100F03EFC00F03EFCEE8404202D
:1012E00001F072FBA866002800D128E2972800D1FF
:1012F00025E2A86A002800D121E2E88CAA242C214A
:10130000695C80B2884200D319E201F029FB002811
:1013100000D014E201F09AFAA04204D101F0D6FA0A
:10132000A04200D00BE2A86AE98C49014018296B61
:10133000002902D08847002807D0012803D1A86AD5
:10134000E98C4901401800F061FCE88C401CE884FD
:10135000A96A0029D3D1F2E16420DD4C0121215496
:101360000026A6662046643001F0BCFA042001F095
:101370002BFBA066002800D1E1E1972800D1DEE137
:10138000692800D06EE100F0E5FB00F0E5FBE684A3
:10139000042001F019FBA066002800D1CFE19728B6
:1013A00000D1CCE1A06A002800D1C8E1E08CAA25D8
:1013B0002C21615C80B2884200D3C0E101F0D0FAF8
:1013C000002800D0BBE101F041FAA84204D101F0AD
:1013D0007DFAA84200D0B2E1A06AE18C4901401830
:1013E000216B002902D08847002807D0012803D1AB
:1013F000A06AE18C4901401800F008FCE08C401C18
:10140000E084A16A0029D3D199E16420F94C01213B
:1014100021540025A5662046643001F063FA0420BB
:1014200001F0D2FAA066002800D188E1972800D107
:1014300085E1692800D04DE100F08CFB00F08CFBC9
:10144000E584042001F0C0FAA066002800D176E10E
:10145000972800D173E1A06A002800D16FE1E08CE9
:10146000AA252C21615C80B2884200D367E101F09B
:1014700077FA002800D062E101F0E8F9A84204D12F
:1014800001F024FAA84200D059E1A06AE18C490198
:101490004018216B002902D08847002807D0012876
:1014A00003D1A06AE18C4901401800F0AFFBE08C49
:1014B000401CE084A16A0029D3D140E16420CD4CD6
:1014C000012121540025A5662046643001F00AFA66
:1014D000042001F079FAA066692800D08BE000F0C2
:1014E00039FB00F039FBE584042001F06DFAA066B9
:1014F000002800D123E1972800D120E1A06A00282C
:1015000000D11CE1E08CAA252C21615C80B28842CC
:1015100000D314E101F024FA002800D00FE101F01B
:1015200095F9A84204D101F0D1F9A84200D006E112
:10153000A06AE18C49014018216B002902D088473C
:10154000002807D0012803D1A06AE18C4901401886
:1015500000F05CFBE08C401CE084A16A0029D3D140
:10156000EDE0E86B00280ED06428014600D3394630
:10157000401AE86307D1A96B002900D1E8E0286C84
:10158000E86300208847002C00D1D8E0972C00D1D8
:10159000D5E0A86A00282AD0E88CAA242C21695C0E
:1015A00080B2884223D201F0DBF900281FD101F07C
:1015B0004DF9A04203D101F089F9A04217D1A86AE0
:1015C000E98C49014018296B002902D0884700287E
:1015D00007D0012803D1A86AE98C4901401800F01E
:1015E00015FBE88C401CE884A96A0029D6D12C2080
:1015F000285CE98C9FE0A06A002800D198E0E08C8C
:10160000AA252C21615C80B2884200D390E001F0D1
:10161000A7F9002800D08BE001F018F9A84204D106
:1016200001F054F9A84200D082E0A06AE18C49019F
:101630004018216B002902D08847002807D00128D4
:1016400003D1A06AE18C4901401800F0DFFAE08C78
:10165000401CE084A16A0029D3D169E0001C00206D
:10166000041B0020606B002803D0E978490800F0D3
:1016700011FBA06A00285BD0E08CAA252C21615CBC
:1016800080B2884254D201F06BF9002850D101F0A9
:10169000DDF8A84203D101F019F9A84248D1A06AA7
:1016A000E18C49014018216B002902D088470028AD
:1016B00007D0012803D1A06AE18C4901401800F04D
:1016C000A5FAE08C401CE084A16A0029D6D12FE065
:1016D000041B0020A06A00282AD0E08CAA252C2117
:1016E000615C80B2884223D201F03AF900281FD110
:1016F00001F0ACF8A84203D101F0E8F8A84217D1F4
:10170000A06AE18C49014018216B002902D088476A
:10171000002807D0012803D1A06AE18C49014018B4
:1017200000F074FAE08C401CE084A16A0029D6D154
:101730002C20205CE18C814201D301F011F901F0F1
:101740000FF9002801D100F0C1F8012001B0F0BD6F
:1017500029480168002900D115E7002CEFD0972C0B
:10176000EDD0264F3868401C02F02AFE396000F0A8
:10177000F1F900F0F1F9EE84042001F025F9A866F2
:10178000002800D1FFE6972800D1FCE6A86A0028CF
:1017900000D1F8E6E88CAA262C21695C80B2884248
:1017A00000D3F0E601F0DCF8002800D0EBE601F011
:1017B0004DF8B04204D101F089F8B04200D0E2E621
:1017C000A86AE98C49014018296B002902D0884792
:1017D000002807D0012803D1A86AE98C49014018E4
:1017E00000F014FAE88C401CE884A96A0029D3D1DF
:1017F000C9E6C046041B0020001B0020FC1A002084
:1018000010B58CB06C46204602F0A4FEA0850D49B0
:10181000084206D1684601F0CBF80A90FF2001F09B
:1018200087F801F0B9F86946884202D10A9801F0B8
:10183000BFF86846808D002801D10CB010BD00F0C3
:101840003DF8C046FFFF000080B5002001F0B0F871
:1018500080BDB0B5884208D9002A0FD0491E401E6D
:101860008B5C8354521EFBD108E0002A06D0002373
:101870009CB20D5D05555B1C521EF9D1B0BD80B503
:101880000B46002A03D011461A4602F0A9FD80BD7E
:10189000B0B50023002A0FD0401E491E8C5C855C29
:1018A000521EA54202D1002AF8D105E00020C04313
:1018B0000123A54200D80346D8B2B0BD10B50446F6
:1018C00001F06AF8214602F051FE000080B501F0F7
:1018D00047F8002800D080BD0648002141706022F2
:1018E000027002228270C1700171052101F02CF892
:1018F00080BDC046001C0020B0B51A48C07803283F
:1019000007DC01280DD0022828D1174802F036F84C
:10191000B0BD04281FD0082820D1134802F02CF8AD
:10192000B0BD114C0121204602F021F8204601F003
:10193000FFFF0E4CA079002811D120460C30002565
:1019400006222946FFF79BFF12340C222046294627
:10195000FFF795FFB0BD044802F00CF8B0BD1020B1
:10196000FFF7ACFF001C00209C1E0020D41D0020AF
:101970007F2101400020052903D8C8B20149081879
:10198000007B7047D41D002080B5164801790429DA
:1019900018D0022906D0012922D1811D134801F057
:1019A000CDFE80BDC2787F211140052918D8C9B26B
:1019B0004A000D4B9A1800235382821D0B4801F0F8
:1019C00043FF80BDC2787F211140052908D8C9B2E4
:1019D000054A521843791373821D044801F0DCFE56
:1019E00080BDC046001C0020D41D00209C1E00208D
:1019F00070B515460E460446FF2D1BD80E485021E3
:101A00000170202101714571E91C817080222243FF
:101A1000C270090A4170062100F096FF304629463F
:101A200000F092FF7F2020404000044908187D21EB
:101A30000901418270BDC046001C0020D41D002059
:101A400080B50A46014682201423FFF7D1FF80BDEE
:101A500080B50C480178002900D080BD0621817135
:101A60000A21017008498B784A7812021A437D23B3
:101A70007D2A00D31A464280C91C0448FFF7E9FEBC
:101A800080BDC046D41D0020001C0020801C00200A
:101A9000B0B52048827841780902114300780F28B8
:101AA0000ADC0E2810D00F2823D10020012927D1CD
:101AB000FFF722FF0120B0BD10281ED0162818D134
:101AC000FFF7C6FF0120B0BD134881686431816013
:101AD0001C21124A435A002B08D06424642B1D4653
:101AE00000D325465B1B435213420ED0891E10299A
:101AF000F0D10220FFF7CAFBB0BD0020032900D2BD
:101B0000B0BDFFF741FF0120B0BD002101701020E2
:101B1000FFF7D4FE001C0020D41D0020FFFF0000B2
:101B2000B0B50A2000F0C6FD084C00252022204652
:101B30002946FFF7A4FE65802570A571A56000F019
:101B400053FB034805604560B0BDC046D41D00206E
:101B5000F41D002070470000024800210160416030
:101B60007047C046F41D0020F0B589B00546084610
:101B700000F088FD0446002C43D02069002840D0A6
:101B8000284600F07FFD014602AD1C222846019246
:101B9000FFF75FFE2168E98062682A81A0681A4F1A
:101BA00065233B7089B292B24A434243D1084E1C2E
:101BB00007231A4200D10E46314600910426864082
:101BC00070181D30B870000A78700321384600F094
:101BD000BBFE2846019900F0B7FEA06838700121CD
:101BE000384600F0B1FEE06800F04CFDB1B200F004
:101BF000ABFE009885B2206900F044FD294600F054
:101C0000A3FE09B0F0BDC046001C002070B500F076
:101C100039FD044620787F26064000F0A1FE00280A
:101C200030D1002E2ED0E06900281DD000F02AFD12
:101C30000546052E02D1A07E002824D0284602F0B9
:101C4000A3FC064612486521017031461C318170A3
:101C5000090A4170032100F077FE1C21204600F0A4
:101C600073FEB1B228460BE009480021417065219E
:101C700001701C258570032100F066FE2046294670
:101C800000F062FE70BD20462946FFF76DFF70BD73
:101C9000001C002070B50446002C28D014480668AB
:101CA00045688E4201D16D1C45600E43002902D06B
:101CB0000660324605E00022026042600D4B5B1C6C
:101CC0001E438A4201D000214160082D0CD303211C
:101CD000284602F075FB012290073043002900D00E
:101CE0003046D107884300E030462946A04770BD02
:101CF000F41D0020FFFFFF7F80B5074A00215170CF
:101D00004E211170022191701071000AD0700521CE
:101D1000104600F019FE80BD001C0020F0B581B017
:101D20000F4E01243470B11CFF2750377A1C204617
:101D300000F0F0FD054675707A1B7719F91C02203A
:101D400000F0E8FDB8702D187619F47000F0D6FD9B
:101D50003071902070710020B071E81D01B0F0BDAD
:101D6000801C0020F0B58BB00A46044607200442D0
:101D700007D02746F8B291B2FEF7D6FC80B20BB07E
:101D8000F0BD83210691A64EA44D27460390102155
:101D90002046084093B2002B079400D1B5E00028FC
:101DA00000D0B2E0059301920291049007E08021F7
:101DB0000022284600F0E0FD012000F043F900F089
:101DC000CFFD0028F3D17D200001B1680C183078D8
:101DD00008281CDD0928059921D00A2866D1019A16
:101DE0001046924908404008A92800D311E1532029
:101DF0002870AA70100A68700321284600F0A4FD1C
:101E00008948059900F0A0FD0020307068E007289F
:101E1000059948D18748784400F050FA5DE00021E8
:101E2000804F3846009101F097FA384600F0EAFFFB
:101E30000028069F15D1FFF749FD80210022284682
:101E400000F09AFDB068A04200D3DCE0FFF720FE6E
:101E500000F086FD0028F0D1724800F0D3FF002882
:101E6000E9D0059AD01D4008A92800D3D1E0384612
:101E70000D306D4B9854981800994170581D019978
:101E8000891C8FB219463A46FFF7E3FC05226648E3
:101E90000099FFF7F4FC781D83B262480699624A04
:101EA00001F06EFA19E0002800D1AFE0F8B2FEF7B9
:101EB0003BFC002811D0A9E0FFF708FD802100229B
:101EC000284600F059FDB068A04200D39BE0FFF720
:101ED000DFFD00F045FD0028F0D130780028EBD17F
:101EE0000020B07130707080079CA10600D545E7D6
:101EF000FFF7ECFC20060498029906D5089108AA81
:101F00004B4B1846114601DF0498002804D16006A7
:101F100073D40020B07130700020708000F020FD7C
:101F2000002801D1FFF7D2FC802400272846214653
:101F30003A4600F021FD022806D8A9786A781202F4
:101F40000A43D11C81423BD1FFF7A2FD7088317852
:101F50000029E3D00028E1D03749794404223248EF
:101F6000FFF796FC00282DD03449794404222E48EE
:101F7000FFF78EFC00282AD03149794404222A48F0
:101F8000FFF786FC00283CD106982730C4B200F049
:101F90009DFCA04224D10120234C2070A01C402194
:101FA00000F086FC6070811C1B4A121D1140069BCC
:101FB0000D336354C11C114000276754021D16E005
:101FC0000020A8E7FFF7AAFE024600270FE0002046
:101FD0001549487006980D300870079F274305E0A3
:101FE0006920114908700698801C48700222FCB2D2
:101FF0000398074200D1CAE6BCE67088064940183B
:10200000BCE67088BAE61020FFF758FC0920FFF7FD
:1020100055FC0220FFF752FCFBFF0000001C0020D3
:10202000D41D0020FC1D0020801C0020FEFF0000AD
:10203000BE9A006027FCFFFF622A0000572A0000BA
:102040004C2A000070B5044600F08AFC002801D13B
:10205000FFF73CFC0C4E8021002530462A4600F05C
:102060008BFC3078152806D80121814007480142B1
:1020700001D0002C05D1FFF70BFD0125002800D170
:102080000546284670BDC046001C00202070200078
:10209000F0B581B000920F4604464B4EB74210D0C7
:1020A000494D0021402628463246FFF7E8FB0098BC
:1020B0004028024600D3324628463946FFF7C9FB7E
:1020C000414EB07801280ADC002828D0012869D1C7
:1020D000F01C042100F004FB402130462BE00228D4
:1020E00027D005285ED13079F17809020143374CB9
:1020F0002068002781425BD1206800281ED0344828
:10210000009D2918334A13686D1FADB2AB4200D24F
:102110001168051D0D4030480068711D34E0F01C49
:10212000002704223946FFF7AAFB40213046A0478A
:102130003EE025484021A047002739E0B079717979
:10214000090201432548016001684908A8292FD8E0
:102150000168204801607178327812020A432049F0
:102160000A601D491F4A0A60009D691F8AB218490A
:102170005218D21C0368ED1FADB2AB4200D2026808
:102180000D1D1540F11D17482A46FFF762FB114847
:102190000168491B01601048016849190160206805
:1021A000401C20600B48016801200227002907D14C
:1021B0000648002101600848016006480160384671
:1021C000C0B201B0F0BDC046401E0020801E0020FD
:1021D000FBFF0000881E00208C1E0020841E0020B3
:1021E000901E0020801C002003480021016003484D
:1021F0000160034801607047801E00208C1E002093
:10220000881E0020F0B581B0264F3A68264C216820
:10221000002921D0002A1FD00090264D0021402205
:102220002846FFF72CFB0520A87023480168090AFF
:102230002970006868701D490868000AE87008681D
:1022400028710968206800290ED03B263B2800D859
:1022500026683968681D12E0144800210160396061
:102260001348017021601BE03926392800D8266800
:102270002068000A68712068A8713968E81D324634
:10228000FFF7E7FA009A09492068801B2060386848
:10229000801938600868401C086006484021904753
:1022A00001B0F0BD8C1E0020881E0020801E002082
:1022B000D41D0020401E0020901E002080B5002963
:1022C0000BD0064A00231360054A1160054A064BED
:1022D0001360064A1160FFF795FF80BD801E002045
:1022E000881E00208C1E0020801C0020841E0020E0
:1022F00081B0F0B58EB015460C4606901393022CB3
:1023000000D2B1E10698002800D1ADE1002D00D146
:10231000AAE10698214602F059F813A809902978F5
:10232000002900D1A0E1671E002602E0A81941782B
:10233000761CC8B2002801D02528F7D1BE4200D3B0
:102340003E46069C20462946324602F045F8BF1B11
:10235000A4190694002F00D186E1A95DAD192529A5
:1023600000D07EE16B1C002020210A2207920490FD
:10237000059008900446084604E009990A1D099250
:10238000096804911D46224629786D1C00242D29D8
:10239000F9D0472918DC2F2928DD0B46303B0A2BC2
:1023A00000D35DE13029044600D10C46089B002B88
:1023B00000D004460A230898434358183038089040
:1023C0002B4620461446DDE7672908DC62293DDC00
:1023D00048294DD1014601200590084603E07229A5
:1023E0001BDC68294CD11021079118E0252900D168
:1023F000C4E02A2924D02E2900D031E129782A29C5
:1024000000D02EE16A786B1C01242A21482AB4D01E
:10241000682AB2D0732AB0D023E1732933D1099945
:102420000B1D0993032313400968012B00D1B1E070
:10243000022B00D1B0E0032B2B461446A2D0BCE007
:102440002978022473292B4697D00AE1632900D109
:1024500096E0642900D003E1029003970998011DDA
:1024600009910068C11742184A40C00F0A2715E0B9
:10247000582900D0F4E0014601200590084605E007
:10248000702903D0ECE0782900D0E9E002900397AE
:102490000998011D09910268002010270124974224
:1024A0000792049012D8012638460446394601F0B6
:1024B00001FFB04209D1384660430899491E08918E
:1024C000079988422646F0D900E034460898411E14
:1024D000049B002B00D108990026F243002B0298A0
:1024E00000D11A460192C2B2302A06D1002B04D084
:1024F0000AA82D23037000230126881E0D280BD85F
:102500000AA83043491E049301F06AFF049B08980F
:10251000801901994018461E002B03D00AA82D21CE
:102520008155761C0598002C1AD0002802D05448FA
:10253000784401E05148784408900798214601F01A
:10254000B9FE394601F03CFF0898405C0AA988555D
:102550002046394601F0AEFE761CA7420446ECD96F
:10256000039FBE4200D33E460AA9069C204632463F
:1025700001F032FFBF1BA41906946FE0252003E091
:102580000998011D09910068069908707F1E491C71
:10259000069163E0049E16E00878002860D1049953
:1025A000B94200D339462022069C2046049101F00E
:1025B00017FF04983F1A24183DE000228B5C521C40
:1025C000002BFBD1561E079810282AD1002E47D089
:1025D00000243B46085D0F2202400009022B1F46E3
:1025E00042D3059B002B05D0012B0ED10894224B22
:1025F0007B4402E008941F4B7B44D2B29A5C069C59
:102600006270C0B2185C2070089C3846871E022891
:102610002AD0641C0698801C0690B4423B46D9D34D
:102620000DE0BE4200D33E46069C2046324601F0F5
:10263000D3FEBF1BA4190694002F089C14D0B442EB
:102640000ED9A41BBC4200D33C462022069E304635
:10265000214601F0C5FE3F1B36190696002F03D018
:102660002978002900D05FE600200EB0F0BC02BC43
:1026700001B00847D3230000EB230000952400009D
:10268000AB24000080B50449884204D30349884242
:1026900001D200F005F880BD0000D0C0C04BD0C012
:1026A0007A460249C91C891A401A7047A126D0C02F
:1026B00001DF704780B584B00190034801A9FFF79E
:1026C000F7FF04B080BDC0463701006080B582B01E
:1026D00002486946FFF7ECFF02B080BD3C02006093
:1026E00080B584B00090019103486946FFF7E0FF90
:1026F000019804B080BDC0462C05006080B588B04C
:1027000000900191029203930A9804900B9805900F
:1027100003486946FFF7CCFF019808B080BDC0466A
:102720003B07006080B584B00190034801A9FFF722
:10273000BFFF029804B080BDDB0A006080B586B0A0
:10274000009001910292039303486946FFF7B0FF9E
:10275000019806B080BDC046ED2D006080B586B002
:10276000009001910292039303486946FFF7A0FF8E
:10277000019806B080BDC046EA2E006080B586B0E4
:10278000009001910292039303486946FFF790FF7E
:10279000019806B080BDC0462E2F006080B58AB07B
:1027A00000900191029203930C9804900D9805906B
:1027B0000E9806900F98079003486946FFF778FF38
:1027C00001980AB080BDC046F338006080B58CB077
:1027D00000900191029203930E9804900F98059037
:1027E00010980690119807901298089013980990E5
:1027F00003486946FFF75CFF01980CB080BDC046F6
:102800003B36006080B588B000900191029203933E
:102810000A9804900B98059003486946FFF748FF13
:10282000019808B080BDC0469D3A006080B586B072
:10283000019002910392044801A9FFF739FF029821
:1028400080B206B080BDC0466E92006080B582B096
:1028500003486946FFF72CFF0198C0B202B080BD63
:102860004F9F006080B588B001900291039204935D
:102870000A980590024801A9FFF71AFF08B080BD29
:10288000BA53006080B58AB0009001910292039320
:102890000C9804900D9805900E9806900F9807904C
:1028A00002486946FFF704FF0AB080BDD8A6006061
:1028B00080B584B00090019103486946FFF7F8FEA7
:1028C000019804B080BDC046FCA8006080B582B00D
:1028D00003486946FFF7ECFE0198C0B202B080BD24
:1028E0003CA0006080B584B00190034801A9FFF7C7
:1028F000DFFE029804B080BD5864006080B582B0ED
:1029000003486946FFF7D4FE019802B080BDC04677
:102910006E6A006080B586B0019002910392034810
:1029200001A9FFF7C5FE029806B080BDD47400600F
:1029300080B584B00190034801A9FFF7B9FE04B047
:1029400080BDC046BE9A006080B584B00090019101
:1029500002486946FFF7ACFE04B080BD8183006089
:1029600080B582B003486946FFF7A2FE019802B025
:1029700080BDC046BB84006080B586B001900291E6
:102980000392044801A9FFF793FE029880B206B0B3
:1029900080BDC046E485006080B582B003486946CA
:1029A000FFF786FE019802B080BDC046B187006087
:1029B00080B584B00190034801A9FFF779FE029821
:1029C00004B080BD7588006080B584B00190044873
:1029D00001A9FFF76DFE0298C0B204B080BDC046E9
:1029E0008B9C0060F0B585B03A4A1278002A03D07B
:1029F00083213A4A7A440BE00A9A452A03D8832174
:102A0000374A7A4404E0072907D18321354A7A44BA
:102A1000022300F0B5FC05B0F0BD01920290402009
:102A20000393185C0490002822D004980528039D85
:102A300008D1284641302C4979440522FEF728FF69
:102A4000002833D041350027284E7E44049C0321C2
:102A5000384601F02FFC0221C9434143705C2978BC
:102A600041402970641E761C6D1C7F1C002CEED129
:102A700045200399085C4630019A904210D14131BB
:102A80001548049C2246FEF7E4FE07201149887190
:102A90004C80092008700121029800F05DFCBAE723
:102AA0008321134A7A4402230298B2E70A4D032293
:102AB0002A70681C0F497944FEF7CBFE281D0E4989
:102AC00079440422FEF7C5FE2878431D832102982D
:102AD0002A469EE7D41D0020801C0020F91F00001C
:102AE000ED1F0000E31F0000BB1F0000AF1F000030
:102AF0005E1F0000431F00003D1F0000F0B581B0C5
:102B00001D460E460446284600F016FC00280ED04E
:102B10002068C11C090A6A469170811C090C517019
:102B2000411C090E1170001D2060D07004E0684641
:102B300004222946FEF78DFE174F082238463146FB
:102B4000FEF787FE3846083069460422FEF781FE0C
:102B500000207873022139730121B973F873387436
:102B6000284600F0E9FB0146201D8625002906D0F5
:102B700029467931C9B20422FEF781FE03E0694695
:102B80000422FEF766FE044A11232046294600F07F
:102B9000F7FB01B0F0BDC046801C0020F0B583B04B
:102BA000029088794B791F020743887801904B780F
:102BB0000E781546093DACB2A74204D0D01FD21FF3
:102BC00092B297421BD13D46002E08D083211C4A69
:102BD0007A440223029800F0D3FB03B0F0BD022B2D
:102BE00018DC012B23D0022B1DD1A8B26A4610603D
:102BF000CB1D002202980199FFF7F4FEEDE7E4B245
:102C0000A742E1D0D2B297420546DDD083210D4ADA
:102C10007A44DEE7032B0ED0C12B04D183210A4A6C
:102C20007A440423D6E783210A4A7A44D1E78321F0
:102C3000064A7A44CDE78321054A7A440823C9E746
:102C4000401E0000DF1D0000EC1D0000B91D00004B
:102C5000CA1D0000E81D000080B5C1698A784B7864
:102C60001B0213430A78812A09D0832A0CD0862AB2
:102C70000ED1C91C031D0022FFF740FF80BDCA1CF6
:102C8000812100F07DFB80BDC91C1A46FFF786FF3D
:102C900080BD000070B50D460146012A11D1094CD6
:102CA00020462A46FEF7D5FD60194026721B0025F6
:102CB0002946FEF7E4FD8120214632462B46FEF7E9
:102CC00097FE70BD401E00200282C1600022C282B9
:102CD000827642858284C16102627047F0B583B01A
:102CE0000D4604462A20215C20462A3001294AD07C
:102CF00000293BD12B210022625423462B3320276D
:102D0000E15DC91EC9B22646203601293ED8218B75
:102D1000E28A91423CD94020012D00D038460290F1
:102D2000A07E03230126002800D033460027012D72
:102D30003E4600D12E46B60033431E46029B9B1BE7
:102D4000891A1A46914200DC0A4691190291012D16
:102D500008D1211D2A48042701923A46FEF779FD41
:102D6000019AA07E002820D0FF302BE02521615C55
:102D7000062908D12B21625C0023635423462B33A0
:102D8000002A03D1BBE72B200021215403B0F0BD62
:102D9000FCD10021A176E18219700170B18031600F
:102DA000E068E06115480170F0E74020205CB9B2AE
:102DB000134B58540120384381B2637E104F7B542B
:102DC000471C207EB9B20E4B5854E169002907D048
:102DD0001746BAB29819E38AC918FEF73AFD3A467F
:102DE000E08A1018E082A07E401CA076029881B292
:102DF00003482A46FFF74EFFC8E7C046D41D00200F
:102E0000401E002001462A200A5C0120002A10D022
:102E1000012A01D100200CE025200A5C0020062AAE
:102E200007D12B200A5C01200021002A01D008468E
:102E300070477047B0B52B2101244454011D0B4D40
:102E400004222846FEF705FD0020687183202871C2
:102E50000220A8716920E8717C20C043801C287280
:102E6000092128462246FFF715FFB0BD401E00206D
:102E7000B0B52B2101244454011D084D04222846DD
:102E8000FEF7E7FC0020687188212971A8710721ED
:102E900028462246FFF7FEFEB0BDC046401E002079
:102EA000F0B581B004462520205C26462536002555
:102EB00005286AD008784B781B0203438878CD78C0
:102EC0002D02054328041843237965792D021D43FB
:102ED000A379E7793F021F433B042B43834257D139
:102EE00008790B1D658C002D13D02423E75C234645
:102EF0002433B8424CD1278B401C18707B1B501FC9
:102F0000984200DB18464219628482B2208D491D26
:102F100023E07C25ED436D1DEFB28325B84204D13B
:102F20002046FFF7A5FF01252FE08F794979090297
:102F30003943C91CA8422BD1208B8DB2A84227D17E
:102F400089B2164D24270020E055121F8A4200DB6B
:102F50000A466284154019462A46FFF767FC208519
:102F6000218B628C01258A420FD3E18C88420FD1DC
:102F700006203070002060842A20205C012804D1C3
:102F80002046FFF757FF00203070284601B0F0BD03
:102F9000052030701020FEF791FCC046FFFF0000B6
:102FA000F0B589B0044623722020205C26462036E6
:102FB00003280AD02A25675D25462A35002F1BD015
:102FC0002046FFF76DFF002814D1D7480621017273
:102FD000042131707A21C9433A314022A15408308A
:102FE000E0610020A076E08201202083217A204643
:102FF000FFF774FE09B0F0BD042809D12B2000278B
:103000002754A776E7822F70B7803760E068E061C9
:1030100008910020012B00D1184687000120394675
:103020000143079191423BD80390012B06930492F0
:10303000059707D1201D04220899FEF70AFC059F79
:10304000049A069BE08A00280CD0012B24D120464C
:103050001230211D0422FEF71BFC059F049A069BDB
:10306000002819D0032138460843904218D800910F
:103070000899C8190290C8570F467A21C9437A3176
:1030800049B28525884225DDA748042101723170A7
:103090003A3540216554A2E702203843904202D9D4
:1030A000A148852193E72120205C984246D13078C1
:1030B000012851D1012B7FD1211D042208980392B0
:1030C000FEF7E6FB059F002876D09748062101729F
:1030D00003997EE70195012B14D1307801281ED188
:1030E000251D2146123104222846FEF7D1FB069BFE
:1030F000002807D0029800780199491CC9B288427B
:1031000000D0E8E03078012809D1012B00D080E020
:10311000029800780199491CC9B2884279D107996F
:1031200078184078795C0F020743208AC01E8742D6
:103130001FDD7D480099017204216DE07A20C043B3
:1031400001460831784A1172042131703A30402129
:1031500060540832E26144E7012B56D12B20002154
:103160002154A176E1822970B1803160E068E0618C
:1031700040E702980078812805D08628019D51D02B
:10318000832800D097E0012B57D1251D674979444A
:10319000042228460892FEF77BFB002807D06449EA
:1031A000794404222846FEF773FB002845D15E4887
:1031B0000B21017208992FE0089AD119D05DA27EE7
:1031C000904222D10498079A851AE08A228B121A1B
:1031D000954200DB1546AFB2E2691018491C3A4629
:1031E000FEF737FB0699012908D1E08AE169091841
:1031F000E08C3A46FFF71AFB0699E084E08A28182B
:10320000E082A07E401CA0763CE047480421017289
:10321000DFE64548042101723170019A3A324021BB
:103220006254DCE6012B6AD1201D42497944042511
:103230002A46FEF72DFB002870D004980599451A00
:10324000FF1CBD4200DB3D46AAB2E069029908922C
:10325000FEF7FFFA069B012B06D1E1690020089AD0
:10326000FFF7E4FA069BE084212023542783E582BC
:103270000020A07620461230211D04221D46FEF7B4
:10328000E8FA2946E08A012901D1218B06E0218B49
:10329000CA1C824202D22448032198E6884204D202
:1032A0000020606301203070A4E6022030702046C8
:1032B000FFF7D2FC9EE61C48039B03720421317089
:1032C000019A3A32402162540830E0610020A07631
:1032D000E08223838AE6144C042220462946FEF726
:1032E000B8FA0020607101983A302071039AA271F7
:1032F0000620E07108212046FFF7CCFC7AE60A4858
:10330000039A0272042131703A3540216554083025
:10331000E0610020A076E082228367E602480B216C
:103320000172357079E7C046401E00208618000003
:1033300078180000EC17000080B506497944042293
:10334000FEF7A6FA014601200022002900D010460F
:1033500080BDC046D816000080B52A22835C024694
:103360002A32002906D0002B08D101211170FFF765
:1033700061FD80BD012B01D10220107080BD0000D5
:1033800070B504462A20205C002809D0012824D0EA
:103390002520205C062820D12B20205C00281CD171
:1033A000202003252554402021540020A076E261EE
:1033B000E08223832120215C2546213503290DD17C
:1033C000084E3078002808D0032100E029782046F4
:1033D000FFF784FC30780028F8D170BD2046FFF755
:1033E0007DFC70BDD41D0020024900200860024908
:1033F00008607047981E0020941E002010B50748F2
:10340000002444704F210170012181700221C1709C
:103410000421FFF799FA204610BDC046001C002089
:1034200070B582B06D4600246C704F262E7002205D
:10343000A8700320E8702C7105212846FFF784FA54
:103440006C702E700120A870E87004212846FFF7E8
:103450007BFA204602B070BD10B582B001A80024EE
:1034600044704F210170012181700221C17004213B
:10347000FFF76AFA204602B010BD0000B0B582B076
:10348000144800240460144804606D464F202870DE
:103490006C700520A8700420E87001202871697103
:1034A000AC71012A05DC002A0AD0012A0AD10420C5
:1034B00006E0022A03D0032A04D1022000E0032000
:1034C000694688716846C3710821FFF73DFA0020FC
:1034D00002B0B0BD981E0020941E002010B582B02E
:1034E0006846002444704F22027005228270042234
:1034F000C2700122027141718471C4710821FFF709
:1035000023FA204602B010BDB0B582B00D46684621
:10351000002444705021017003218170C570402146
:10352000017144710621FFF70FFA8020054201D096
:10353000074800E0054801687F2215400122AA40A3
:103540000A430260204602B0B0BDC046981E00206B
:10355000941E002070B582B00D4668460024447069
:103560005021017003218170C5708026067144715D
:103570000621FFF7E9F9354201D0074800E0054888
:1035800001687F2215400122AA4091430160204634
:1035900002B070BD981E0020941E002080200142C1
:1035A00001D0064800E0044802787F200140012055
:1035B000884010407047C046981E0020941E00208E
:1035C00010B582B06846002444704F220270022277
:1035D00082700322C27001710521FFF7B5F9204600
:1035E00002B010BDB0B582B01C46154668465022E8
:1035F0000270C170202101714471E11C8170090ABF
:1036000041700621FFF7A0F928462146FFF79CF9F3
:10361000002002B0B0BD10B582B0684600244470EE
:103620005023037003238370C170302101714271F4
:103630000621FFF789F9204602B010BD70B5154686
:103640000E4604460220002C10D045208100204662
:1036500000F0BCFE002E01D0F0202650DC2001211D
:10366000215425702046FFF7BFFE0020C0B270BD78
:10367000B0B50446DC20012121541720C543601950
:10368000432189004058002806D04068FEF7FAFF21
:1036900002462179204690470835F0D12046FFF7B1
:1036A000DBFE2046FFF7AAFE0020B0BD0223002A61
:1036B00007D00023022804D8C0000818F421425083
:1036C0000023D8B2704780B5FFF7AAFE002080BD66
:1036D000F0B581B00C4605460026F4272846314651
:1036E00000F069F9002807D0E8590068FEF7CAFF22
:1036F00002462846214690470837761C032EEDD116
:10370000002001B0F0BDF0B581B00C4605460026A2
:10371000F4272846314600F04EF9002807D0E85932
:103720004068FEF7AFFF024628462146904708371B
:10373000761C032EEDD1002001B0F0BDB0B50446DB
:103740002546E835284600F084FBD420012121508D
:10375000EE20205AD8216050E820215C1F2008402C
:10376000022808D001280BD000280ED12046294677
:1037700000F02EF90EE02046294600F0E5FA09E0B7
:103780002046294600F0BCFA04E080200140204693
:10379000FFF7BAFE0020B0BDF0B583B00292044638
:1037A000019100291CD02546DC350027F42620464F
:1037B000394600F000F900280DD0A0598069002892
:1037C00009D02978032906D1FEF75CFF034620467D
:1037D0000199029A984708367F1C032FE7D130E001
:1037E000D420205803282CD180202058E16F81421A
:1037F0000AD9091AE167814200D301468AB22046FC
:10380000029900F025FD1CE02646DC360025F42751
:103810002046294600F0CFF800280BD0E059006977
:10382000002807D03178032904D1FEF72BFF014689
:103830002046884708376D1C032DE9D1204600F04B
:103840000EFD002003B0F0BDF0B581B0044600913C
:1038500000291BD02746DC370026F42520463146B8
:1038600000F0A9F800280CD060594069002808D061
:103870003978032905D1FEF705FF02462046009955
:1038800090470835761C032EE8D14EE0D42020580E
:10389000022843D1E069256AA8420BD911210A0107
:1038A000A1584919A150401BE06182B2204600F0A6
:1038B000C1FC33E0A6693046294600F081FDAE42E6
:1038C0000FD300290DD1D82020582746D83786425B
:1038D00007D20025204629462A4600F0ABFC3D6071
:1038E0001CE02646DC360025F4272046294600F059
:1038F00062F800280BD0E059C068002807D0317862
:10390000032904D1FEF7BEFE01462046884708374A
:103910006D1C032DE9D1204600F0ADFCE020205CB9
:10392000E034012801D100202070002001B0F0BD5A
:1039300070B50446802040212150DC200122225411
:1039400021620025F4262046294600F034F800289C
:1039500007D0A0594068FEF795FE0246217920461F
:10396000904708366D1C032DEDD1002070BD017409
:1039700000207047002070470020704770B5044653
:10398000DC20205C032814D10025F426204629469B
:1039900000F011F8002808D0A059C069002804D010
:1039A000FEF770FE01462046884708366D1C032D41
:1039B000ECD1002070BD02460020022907D8C800C3
:1039C0001018F42141580120002900D10846704701
:1039D00080B54A78042A08DD072A0FDC052A14D0AE
:1039E000062A1BD100F021F81DE0002A10D0012A80
:1039F00017D0032A12D100F034F914E0082A0AD0B3
:103A0000092A0BD100F0BDF80DE000F094F80AE0AF
:103A100000F005F907E000F0EBF804E000F066F9CB
:103A200001E000F03BF9002080BDB0B582B00D464A
:103A3000044601A8002101806A88100A052812DCCA
:103A400001281CD0022824D0032837D1D0B2022864
:103A500039DC00285FD0012865D002282ED1F02063
:103A60002058C0680EE006281CD0072823D00F2855
:103A700024D1F0202058C069002803D11EE0F02096
:103A800020580068FEF7FEFD0246207C01A9904701
:103A90002FE0F420205800282CD0217C002922D0AF
:103AA000C06A21E0207C002808D1F420205800289A
:103AB00004D0406B18E0207C00280ED02046294618
:103AC00000F014F925E0032829D004282FD0052878
:103AD000F4D1F02020588069D4E7F4202058002841
:103AE000ECD0006B00E0806AFEF7CCFD014601A837
:103AF0008847014601A80288002A0AD0E8880028E1
:103B000007D0824200D3024601A80280204600F07E
:103B10007BFB02B0B0BDF02020584068B2E7F02037
:103B200020580069AEE7F02020588068AAE7F0200E
:103B300020584069A6E770B50446888800280BD154
:103B4000C888002808D148887F260640DC20205CF1
:103B50002546DC35032803D1204600F0C7F870BDA8
:103B6000DE202654F1B22046FFF72AFD204600F061
:103B700076FB002E02D00220287070BD0120287034
:103B800070BD70B50D460446AE78022E1DD2DC2005
:103B9000215C2046DC30032907D0022915D1002EF4
:103BA00022D066600321017009E0002E12D0606807
:103BB000B04219D0C1B22046FFF7A5FD666020468D
:103BC0003146FFF785FD02280ED12046294600F038
:103BD0008DF870BD02210170666020463146FFF706
:103BE00092FD204600F03BFB204600F038FB70BD04
:103BF00080B5CA88012A0AD1DC22825C032A09D056
:103C0000022A04D1002181600146083103E000F05E
:103C10006DF880BD011D012200F0F6FA80BDB0B53F
:103C20000446DC20205CFE220240022A15D101203D
:103C3000E060E420215825460C350320002905D0FA
:103C4000204600F018FBE16802200843E0600222F1
:103C50002046294600F0D8FAB0BD204600F046F8CC
:103C6000B0BDB0B50D4604466888012815D1E420E2
:103C700001212150287902280CD8C0002018F421F5
:103C80004058002806D08068FEF7FCFC024620461B
:103C900029469047204600F0E2FAB0BDB0B50D4687
:103CA0000446DC20205CFE210140022919D16888ED
:103CB00001281AD1E42000212150287902280CD8AB
:103CC000C0002018F4214058002806D08068FEF774
:103CD000D9FC0246204629469047204600F0BFFA0C
:103CE000B0BD2046294600F001F8B0BD10B504462D
:103CF0008021FFF709FC00212046FFF705FC10BDDD
:103D0000B0B50D460446DC20205C032816D1287986
:103D1000022813D8C0002018F421405800280DD0E4
:103D20008068FEF7AFFC0246204629469047E888A7
:103D3000002807D1204600F092FA03E020462946E9
:103D4000FFF7D4FF0020B0BDB0B50D46044628787B
:103D5000602202402979202A0FD102290DD8C800FB
:103D60002018F4228058002807D08068FEF78AFCCB
:103D7000024620462946904769E06878002816D018
:103D800001281DD0032862D1DC20205C03281BD130
:103D90006888002807D180200843802803D0204667
:103DA000FFF7B2FB297902294ED8C80040E0DC2099
:103DB000205C032817D0022810D148060AD146E01B
:103DC000DC20205C032827D0022807D1802008436C
:103DD00080283CD02046FFF797FB38E02046294654
:103DE000FFF784FF33E07F200840000120180546DC
:103DF000743514308022114200D005462046FFF76A
:103E0000CDFB0121002800D1014629600222204675
:103E1000294600F0F9F91AE06888002817D1480609
:103E200012D02046FFF796FB287902280CD8C00054
:103E30002018F4214058002806D08068FEF722FCA4
:103E40000246204629469047204600F008FA002006
:103E5000B0BD0A7802704A7842708A78CB781B022B
:103E6000134343800A794B791B02134383808A7979
:103E7000C97909021143C180704770B582B00D46FF
:103E8000044601A900200880694608702A7860214C
:103E90001140002910D0202938D169780A460A3A01
:103EA000022A33D302291BD0032919D020462946E0
:103EB000FFF71CFF022029E069780B2913D00A299B
:103EC0000ED0062922D16888000A002221280ED0AF
:103ED0002228114616D101AE304600F059F80AE00A
:103EE000694601220EE0204600F0B9F90DE001AE6E
:103EF000304600F033F801463288E888824200D329
:103F000002463280204600F07FF90020C0B202B0A5
:103F100070BDF0B581B004468221032640253246AB
:103F20002B46FFF7ABFA02272046394632462B468E
:103F3000FFF7A4FA204639462A46FFF76CFB00201B
:103F400001B0F0BD10B504468221FFF7C7FA022187
:103F50002046FFF7C3FA002010BD0000EC21094AFB
:103F6000515C0922012905D0002906D1074979446D
:103F7000092204E00449794401E00022114602804C
:103F8000084670479C1E0020A60A0000BA0A0000DE
:103F9000F0B581B00446EC201349085C22210028CA
:103FA00019D001281AD110488121032740263A460A
:103FB0003346FFF763FA01250B4829463A46334654
:103FC000FFF75CFA084829463246FFF724FB084809
:103FD0007844222104E00548784401E000210846A5
:103FE000218001B0F0BDC0469C1E00207B0A00006D
:103FF000610A0000F0B581B0044681210326402506
:1040000032462B46FFF73AFA012720463946324618
:104010002B46FFF733FA204639462A46FFF7FBFACC
:10402000002001B0F0BD000080B5012903D1034894
:104030000121FEF753FE002080BDC046FC1D00207C
:10404000B0B5144601290DD1012540222946FFF7BC
:10405000E2FA2846FDF78CFC0246034821462B462F
:10406000FEF79EFF0020B0BDFC1D002080B5022998
:1040700003D103487844FEF7C5F8002080BDC04650
:10408000C9D9FFFFB0B51446022919D10221402237
:10409000FFF7C1FA0B4DA879002811D10220FDF7D6
:1040A00067FC0246094878442146FDF7F1FF0228E3
:1040B00006D1072028700120A87103480068688095
:1040C0000020B0BDD41D0020841E002097D9FFFF22
:1040D00012200880014878447047C046320A000028
:1040E00004200880014878447047C046340A000024
:1040F0000E200880014878447047C046280A000016
:104100000E200880014878447047C046260A000007
:104110000A200880014878447047C046240A0000FD
:104120000E200880014878447047C046060A000007
:104130000E200880014878447047C046F609000008
:104140000020088070470000F0B581B0044645208B
:1041500085001E48002631462A46FDF790FB1C4F7D
:1041600038460C3006223146FDF789FB12370C2207
:1041700038463146FDF783FB002C22D0134C002635
:10418000204631462A46FDF77AFB144979442046F9
:104190003246FFF753FA124A7A4430462146FFF777
:1041A00085FA01200F4A7A442146FFF77FFAFF2261
:1041B000523208480849FEF787FD2046FFF783FA88
:1041C00002E00248FFF754FA01B0F0BD9C1E002047
:1041D000D41D0020FC1D0020801C0020EC080000E5
:1041E000000900002A0900004921018001487844A3
:1041F0007047C046560900000A21018001487844F2
:104200007047C04692090000B0B50C46D421022385
:1042100043501121090144508261C261016A9142F7
:1042200000D80A4693B2002529462246FFF7DAF95C
:104230002846B0BDB0B50C46016A914200D80A4686
:1042400093B2002529462246FFF7CCF92846B0BD97
:1042500010B500242146FFF7DEF9204610BD10B549
:10426000D421042242500024214622462346FFF74F
:10427000B9F9204610BD10B5D421052242500024C2
:1042800021462246FFF7C7F9204610BD10B5084C5D
:104290002078002808D12046243000212022FDF774
:1042A000EEFA2078401C2070C0B2401E10BDC046FF
:1042B000041B0020002243088B4274D303098B4265
:1042C0005FD3030A8B4244D3030B8B4228D3030CE6
:1042D0008B420DD3FF22090212BA030C8B4202D388
:1042E0001212090265D0030B8B4219D300E0090AB0
:1042F000C30B8B4201D3CB03C01A5241830B8B42B9
:1043000001D38B03C01A5241430B8B4201D34B03A1
:10431000C01A5241030B8B4201D30B03C01A524106
:10432000C30A8B4201D3CB02C01A5241830A8B428B
:1043300001D38B02C01A5241430A8B4201D34B0274
:10434000C01A5241030A8B4201D30B02C01A5241D8
:10435000CDD2C3098B4201D3CB01C01A524183098C
:104360008B4201D38B01C01A524143098B4201D3C6
:104370004B01C01A524103098B4201D30B01C01AF1
:104380005241C3088B4201D3CB00C01A524183086B
:104390008B4201D38B00C01A524143088B4201D398
:1043A0004B00C01A5241411A00D2014652411046F8
:1043B0007047FFE701B5002000F006F802BDC046D7
:1043C0000029F7D076E770477047C04610B5002245
:1043D00000F006F810BDC04610B500F009F810BD99
:1043E000130010B50A00190000F060F810BDC046B7
:1043F000F0B5C64600B588420CD98B18984209D250
:10440000531E002A03D0CA5CC254013BFBD204BC39
:104410009046F0BD0F2A0CD80500561E002AF6D093
:10442000002300E02300CA5C5C1CEA549E42F9D1E0
:10443000EDE70B00032603431E400C000300002E93
:104440002ED11500103D2D09AC462D01A846804403
:1044500000E02B001D00276810351F6067685F6053
:10446000A7689F60E7681034DF604345F1D1654677
:104470000F230C2401352D0149191340451914420D
:1044800011D08C59AC5104369C1B032CF9D8032451
:10449000043B9B0801339B00ED18C9182240BCE780
:1044A000561E0500BCE71A00B7E7C046F0B5050088
:1044B00083074AD0541E002A44D0CEB20300032200
:1044C00002E00135013C3DD301332E701342F8D197
:1044D000032C2FD9FF220A40150215432A04154345
:1044E0000F2C35D92700103F3F093E01B4461E006E
:1044F0001A0010366644156055609560D56010321C
:10450000B242F8D10F260C2201373F012640DB19B9
:104510003700224217D03E1FB608B400A4461A0046
:104520001C1D644420C2A242FCD103240136B60003
:104530009B193C40002C05D0C9B21C1919700133DD
:104540009C42FBD1F0BD3400F4E714000300BFE748
:104550002700E0E7F0C041464A4653465C466D46B8
:1045600076467EC02838F0C80020704710307CC8DE
:1045700090469946A246AB46B54608C82838F0C8CA
:10458000081C00D10120184710B5830727D00378F5
:10459000002B26D00300032102E01A78002A1CD049
:1045A00001330B42F9D119680F4A104C8A188A431B
:1045B00022420FD1043319680B4A8A188A432242D7
:1045C00008D104331968084A8A188A432242F1D074
:1045D00000E001331A78002AFBD1181A10BD03003D
:1045E000E1E70020FAE7C046FFFEFEFE8080808003
:1045F00010B500290BD00378002B0CD04418030011
:1046000002E01A78002A04D00133A342F9D108004D
:1046100010BD191AFBE70021F9E7C04653534820A3
:104620004167656E740043414E43454C00434F4E15
:104630004649524D00476574207075626C6963206D
:104640006B657920666F7220706174683A0053530D
:10465000482F504750204167656E740050726F7646
:10466000696465207075626C6963206B65793F00D1
:1046700041757468656E7469636174653F00557354
:104680006572005369676E3F00454344483F00250B
:104690007500656432353531392073656564000015
:1046A0000300000000008000200000000100000066
:1046B00000000000FFFFFF000000000000000000FD
:1046C000070000000C008000200000000000000037
:1046D000FFFFFF0000000000088000004E46D0C031
:1046E000050003000C0007000700000000000000A8
:1046F000FFFFFF00000000000000070000000000B6
:104700000300000000008000200000000100000005
:1047100000000000FFFFFF0000000000000000009C
:10472000070100000C0080002000000000000000D5
:10473000FFFFFF0000000000088000004E46D0C0D0
:10474000070200001A0080002000000000000000A6
:10475000FFFFFF00000000000A8000005C46D0C0A0
:10476000050003000C000700070000000000000027
:10477000FFFFFF0000000000000007000000000035
:10478000050075000D000800060000000000000094
:10479000FFFFFF0000000000000006000000000016
:1047A0000300000000008000200000000100000065
:1047B00000000000FFFFFF000000000000000000FC
:1047C000070100000C008000200000000000000035
:1047D000FFFFFF0000000000088000001C46D0C062
:1047E000070100001A008000200000000000000007
:1047F000FFFFFF00000000000A8000007046D0C0EC
:10480000070200000C0080002000000000000000F3
:10481000FFFFFF00000000000A8000007E46D0C0BD
:10482000070200001A0080002000000000000000C5
:10483000FFFFFF000000000008800000DC190020DE
:10484000050003000C000700070000000000000046
:10485000FFFFFF0000000000000007000000000054
:10486000050075000D0008000600000000000000B3
:10487000FFFFFF0000000000000006000000000035
:104880000300000000008000200000000100000084
:1048900000000000FFFFFF0000000000000000001B
:1048A000070100000C008000200000000000000054
:1048B000FFFFFF0000000000088000005246D0C04B
:1048C000070100001A008000200000000000000026
:1048D000FFFFFF00000000000A8000008346D0C0F8
:1048E000050003000C0007000700000000000000A6
:1048F000FFFFFF00000000000000070000000000B4
:10490000050075000D000800060000000000000012
:10491000FFFFFF0000000000000006000000000094
:1049200003000000000080002000000001000000E3
:1049300000000000FFFFFF0000000000000000007A
:10494000070100000C0080002000000000000000B3
:10495000FFFFFF0000000000088000005246D0C0AA
:10496000070100001A008000200000000000000085
:10497000FFFFFF00000000000A8000008946D0C051
:10498000050003000C000700070000000000000005
:10499000FFFFFF0000000000000007000000000013
:1049A000050075000D000800060000000000000072
:1049B000FFFFFF00000000000000060000000000F4
:1049C000B001000000B0A7000000B00200000030FD
:1049D0003132333435363738396162636465663075
:1049E0003132333435363738394142434445466FE6
:1049F00000900167006985F1D00000000042544337
:104A00000090009000006A805532465F5632900058
:104A1000010990006E006D00FFFFFFFF0000000025
:104A200009211101210122220000000009211101A8
:104A3000000122220006D0F10901A101090315009D
:104A400026FF007508954081080904150026FF001F
:104A5000750895409108C006A0FF0901A10109034E
:104A6000150026FF007508954081080904150026E9
:104A7000FF00750895409108C0000000D140D0C0EB
:104A8000E140D0C0F140D0C00141D0C01141D0C000
:104A90002141D0C03141D0C04141D0C0133FD0C02E
:104AA000453FD0C07B3ED0C00000000000000000A9
:104AB0006D40D0C08540D0C0000000000000000064
:104AC00000000000E941D0C0E941D0C0E941D0C0B8
:104AD000F941D0C0F53FD0C0453FD0C07B3ED0C0EB
:104AE00000000000000000002940D0C04140D0C0BC
:104AF000000000000000000000000000E941D0C0FC
:104B0000E941D0C0E941D0C0F941D0C01201000252
:104B100000000040972C051001020102030104036C
:104B200009040E034C006500640067006500720014
:104B30000E034E0061006E006F00200053000A0358
:104B4000300030003000310009024900020102C08B
:104B500032090400000203000002092111010001D2
:104B600022220007058203400001070502034000DE
:104B700001090401000203010102092111012101BF
:104B800022220007058103400001070501034000C0
:104B9000010000000A0600020000004001000000C1
:104BA0000000000000000000000000000000000005
:104BB00000000000000000000000000000000000F5
:04000005C0D0000166
:00000001FF
