:02000004C0D06A
:1000000070B58CB062B600F01DFD384C0025B022F2
:100010002046294600F008FE01AE304602F00CFDF5
:1000200030853349084203D001A8002101854BE007
:1000300001A800F00AFD01F02FF8284602F0FCFAB2
:10004000012002F0F9FA03202B4979442160606015
:100050002A497944E56021612076E561204618301F
:1000600001F02AFCE06101F0C5FA01F041F8A56059
:10007000E0692049884225D0002823D02068002844
:1000800020D00020616888421CD201F041FC002889
:1000900018D1A068E1683825684322681018002943
:1000A00002D08847002807D0012803D1A068454323
:1000B0002068401901F05AF9A068401CA06021682E
:1000C0000029DFD100F04CFB00F0B3FE01A988420B
:1000D00003D100F0B0FE00F0B8FC01A8008D0028AC
:1000E00002D100200CB070BD00F09EFE041900206B
:1000F000FFFF0000445010B0822A0000D309000026
:1001000070B582B0164600904518684601AA3023A3
:10011000294600F023F8002400281CD001980099FB
:100120000818A84217D168462946324600F06EF8F2
:10013000002810D0403668462946324600F066F85E
:10014000012400220099A942214600D0114600282E
:1001500000D104460C40204602B070BDF0B583B01B
:10016000044625684E1B0020012E23DB2E789E427C
:1001700020D16B1C2360002010608B421AD2AB1C74
:10018000019323606B787F260096F6437F36F6B2A4
:1001900080270297B3420DD01E0602D413600120BF
:1001A00008E0029EB34205D0019E8E1B009F3B409B
:1001B000B34201DD03B0F0BD02965E1E032EF9D8F6
:1001C000019E3678002EF5D0166001969F19029E8A
:1001D000B742EFD8ED1C019E2560022B10DB2F7873
:1001E00036023E4316604F1B02975B1EF7180197BD
:1001F0006D1C0095029F019DBD42009DECD9D9E781
:10020000012000217F2ED5D80846D3E7F0B583B072
:1002100015460F46044602AA0223FFF79FFF014638
:100220000020002936D00020C24321680B785BB241
:10023000002B2FDB029E07D1022E05D3019501254D
:100240004D579542019D25DC002B0ED18F420BD0DE
:10025000002E09D04A1C2260761E497800291146DA
:10026000F4D00296114600E00296721E3F2A11D881
:100270004020821B012A04DB2846114602F0E6FAE0
:100280002168A81B4030324602F0EAFA2068801943
:100290002060012003B0F0BDB0B505460F20284016
:1002A0000024012814D0022814D1002909D00B48B9
:1002B00001F018FB68B200280ADA01F0CBF900243B
:1002C00006E0412081000548002201F037FB04468A
:1002D0002046B0BD022000F0A7FDC046C019002096
:1002E00080B501F043F880BDF0B585B0FB4D2878AE
:1002F000FB4C05284ED00E2800D194E00C2800D0ED
:10030000D3E00026E661012020762046183001F077
:10031000D3FAE06101F06EF9E069F24FB84200D122
:10032000D2E1002800D1CFE1EF49884200D060E15E
:1003300000F0DEFEA660E069B84200D1C4E100280A
:1003400000D1C1E12068002800D1BDE10020616832
:10035000884200D3B8E101F0DBFA002800D0B3E115
:10036000A068E1683825684322681018002902D087
:100370008847002807D0012803D1A068454320689A
:10038000401900F0F3FFA068401CA060216800291C
:10039000DDD199E10026E661012020762046183063
:1003A00001F08AFAE06101F025F9E069EB4FB8420B
:1003B00000D189E1002800D186E1E749884200D0D8
:1003C00051E100F095FEA660E069B84200D17BE102
:1003D000002800D178E12068002800D174E10020D5
:1003E0006168884200D36FE101F092FA002800D0E2
:1003F0006AE1A068E168382568432268101800297E
:1004000002D08847002807D0012803D1A0684543BF
:100410002068401900F0AAFFA068401CA060216875
:100420000029DDD150E10026E6610120207620463A
:10043000183001F041FAE06101F0DCF8E569C648E6
:10044000854274D100F054FEA660E069C349884239
:1004500000D139E1002800D136E12068002800D120
:1004600032E100206168884200D32DE101F050FAAA
:10047000002800D028E1A068E16838256843226898
:100480001018002902D08847002807D0012803D17E
:10049000A06845432068401900F068FFA068401C30
:1004A000A06021680029DDD10EE10025E561012071
:1004B00020762046183001F0FFF9E06101F09AF84B
:1004C000E069A54988426DD100F012FEA560E0699F
:1004D000A249884200D1F7E0002800D1F4E020686A
:1004E000002800D1F0E000206168884200D3EBE0F2
:1004F00001F00EFA002800D0E6E0A068E168382597
:10050000684322681018002902D08847002807D0C5
:10051000012803D1A06845432068401900F026FF58
:10052000A068401CA06021680029DDD1CCE0606992
:10053000002808D064216428024600D30A46801AA5
:10054000606100D1D2E08548854200D1BCE0002D39
:1005500000D1B9E02068002800D1AFE0A068616850
:10056000884200D3AAE001F0D3F9002800D0A5E02A
:10057000A068E1683825684322681018002902D075
:100580008847002807D0012803D1A0684543206888
:10059000401900F0EBFEA068401CA0602168002913
:1005A000DDD18BE02068002800D187E0A068616879
:1005B000884200D382E001F0ABF900287ED1A06828
:1005C000E1683825684322681018002902D088475E
:1005D000002807D0012803D1A068454320684019AE
:1005E00000F0C4FEA068401CA06021680029DED194
:1005F00064E0A088049020680390EE79AB796F796D
:100600002A79ED78E16868460560416012023A4354
:100610001B0233430398049900F0DAFD2068002898
:100620004CD0A0686168884248D201F071F9002876
:1006300044D1A068E1683825684322681018002971
:1006400002D08847002807D0012803D1A06845437D
:100650002068401900F08AFEA068401CA060216854
:100660000029DFD12AE02069002803D0E978490871
:1006700000F0BEFE2068002820D0A0686168884293
:100680001CD201F045F9002818D1A068E16838258E
:10069000684322681018002902D08847002807D034
:1006A000012803D1A06845432068401900F05EFE90
:1006B000A068401CA06021680029DFD16068A168A3
:1006C000814201D301F024F901F022F9002801D17F
:1006D00000F0B8FB012005B0F0BDC0468418002032
:1006E00004190020445010B0555010B07D208000F7
:1006F000606100F0FDFCA660E0691849884200D105
:1007000021E7002800D11EE72068002800D11AE761
:1007100000206168884200D315E701F0F9F800284D
:1007200000D010E7A068E1683826704322681018EE
:10073000002902D08847002807D0012803D1A068EB
:1007400046432068801900F011FEA068401CA0609C
:1007500021680029DDD1F6E6555010B0445010B0A4
:10076000F0B5EFB000256E956D957D208000A7490E
:1007700048616C956BA8058060AC204602F05CF97E
:100780002085A34E304239D0A34F60A90D850F219B
:100790000903014009221203914203D003225203AC
:1007A000914202D16BA9088006E09A4908400D21C8
:1007B000C90201436BA801806B98000A6D997854B7
:1007C0006B986D99791848706D98801C6D9000F049
:1007D00030FB60A9884203D100F02DFB00F035F911
:1007E00060A8008D002800D001E16BA8058060ACF6
:1007F000204602F021F920853042C6D160A800F0E1
:1008000024F96D986E9000256D956C986E99C0B224
:1008100089B200F025FE6E906C956E98002800D18C
:1008200088E07D4C20788021802800D0DDE0607851
:10083000FF2801D16FB0F0BD062816DC032851DD7A
:1008400004287AD0052800D184E0062800D0D0E022
:10085000E078A1780D0205436019021D211D204694
:100860002B4600F089FF6800CBE0082849DD092805
:1008700000D183E0302800D191E0312800D0B8E0E9
:10088000A678E11C45A82022049200F0D6F9214662
:10089000233125AF3846324600F0CFF905AA384655
:1008A0003146FFF72DFC002814D05C480268212057
:1008B0005B494DAD2B4600F0F9FE6846866025A9E0
:1008C0004160049901600121032245AB284600F0F4
:1008D00005FF05462570601C25A9324601F0BCFFC6
:1008E000701C8EE0022869D0032800D081E0E078F7
:1008F000A17809020143201D00F09AFFE070042056
:100900007FE0072864D0082873D1E078A1780D0231
:10091000054368002018427900796B46211D4E1965
:100920001E605D60030213437019821C204600F0B4
:1009300039FF58E03B4800F077FAE078A1780D02E3
:1009400005436019021D261D304631462B4600F036
:10095000E3FE0BE0E078A1780D0205436019021D6B
:10096000261D304631462B4600F0EEFE2070601CFE
:1009700031462A4600F061F9681C42E0E078A1782F
:100980000D020543261D7219304629462B4600F0FC
:1009900023FF204631462A4600F04FF923E002208B
:1009A0002056C2B21D4D2A607F3149B2884224DDF3
:1009B000E11C1B4800F041F9286820E0E078A178AC
:1009C0000D020543201D294600F04AFF281D18E0AE
:1009D000E078A1780D0205436019021D211D204613
:1009E0002B4600F00FFF6D950CE03720400200F021
:1009F0001BFA6D20000200F017FA0020286020701A
:100A000001206D900920000300F00EFA0419002067
:100A1000FFFF0000FF070000C01900208018002021
:100A2000001800208269000080B5022101430448BB
:100A3000814202D1002000F029FF002080BDC04685
:100A40000300008000208146704781467047000007
:100A5000F0B581B000920D4604466B4FBD4235D0D3
:100A600040263846314601F0F1FE0098402800D378
:100A70003046BD4217D2002828D04020C143084646
:100A80004030009A831A8B4200D80B463F31CA1A75
:100A9000A9185D4DAA185B1C0D781570091812185D
:100AA0005B1CF9D112E0002810D04020C043014661
:100AB0004031009A891A814200D80146481C2978A1
:100AC0003970401C7F1C6D1C0028F8D14E4DA87851
:100AD00001280BDC002836D0012800D087E0E81C74
:100AE000042100F0CBFD4021284637E0022833D016
:100AF00005287CD12879E97809020143434E306802
:100B00000027814279D1306800282AD04048009CD3
:100B10002118404A1368641FA4B2A34200D211688E
:100B2000001D08403C4909686B1D0022994248D9C4
:100B3000002851D0413940310246AB181B798B5403
:100B4000521EFAD147E00027AF716F712F71EF701D
:100B500040212846A04750E02B484021A0470027CD
:100B60004BE0A8796979090201432C4801600168CA
:100B700041229200914240D801682648016069787C
:100B80002A7812020A4326490A602349254A0A6044
:100B9000009C611F8BB21E495B18DB1C0768E41FB9
:100BA000A4B2A74200D203680C1D1C40E91D8A4272
:100BB0000022002C10D01B48224601F04DFE224698
:100BC0000AE0002808D042421C780C70521C491CD4
:100BD0005B1C002AF8D102460E480168891A0160A0
:100BE0000D480168891801603068401C3060094870
:100BF000016801200227002903D104480021016077
:100C00003846C0B201B0F0BDF01A0020B41900207F
:100C1000FBFF0000BC190020C41A0020B8190020F6
:100C2000C81A0020C019002080B50B46002A03D046
:100C300011461A4601F018FE80BDB0B5884208D9A9
:100C4000002A0FD0491E401E8B5C8354521EFBD1DC
:100C500008E0002A06D000239CB20D5D05555B1C00
:100C6000521EF9D1B0BD000001480021016070475B
:100C7000B4190020F0B589B0029301920E46079096
:100C8000002E00D1A3E0614961480860614C00205A
:100C900020603B200490C04305905F4F781D3925AC
:100CA0000690294601F0D2FD0520B8705B48014648
:100CB0000868000A3870086878702068000AF870C0
:100CC00020683871B2B22068002808921FD03B2AF1
:100CD000164600D3049E4D480068069988423ED2CD
:100CE0000599144642183B31731AD2183A32FB1850
:100CF000DB1C0C1B3B25ED43AC4200D8059C641C5F
:100D000015781D7052185B18641CF9D14EE0BE7145
:100D1000300A7871392A164600D32E463B480068BF
:100D2000F91D88422ED2059C1546021921463B31F9
:100D3000731AD2183A32FB185B1D4D1B06953925E4
:100D4000ED43A41C0394069CAC4200D8039C641C95
:100D500015781D7052185B18641CF9D126E00599AE
:100D60003B31891A3B22D243914200D80599491C54
:100D7000002293B2C45CFB185C71491C521C002910
:100D8000F7D113E0059C21463B31891A3922D34320
:100D9000A21C994200D81146491C002293B2C45C9F
:100DA000FB18DC71491C521C0029F7D18019194C21
:100DB000164908602068401C206040213846079A88
:100DC00090470898861B1648064200D066E71148EF
:100DD000002404608020029D054201D000F03AFC0E
:100DE000A8060FD40C4C019D40212046A847C2B252
:100DF000402AF9D807982146FFF72AFE0228F3D1A6
:100E000008480468A0B209B0F0BDC046C41A00206A
:100E1000C0190020B4190020F01A0020C81A0020C0
:100E2000FFFF0000B819002080B50146484601F0D8
:100E30000FFE4846704700204946002900D0486907
:100E40007047000080B500F063FD002800D080BD31
:100E50000648002141706022027002228270C17037
:100E60000171052100F03EFD80BDC04684180020C0
:100E700010B51448C078032807DC01280DD00228DB
:100E800017D1114801F04BF810BD042812D00828E2
:100E90000FD10D4801F041F810BD0B4C0121204647
:100EA00001F036F8204601F013F8084800780028D1
:100EB00004D110BD044801F02EF810BD1020FFF73A
:100EC000B3FFC04684180020381B0020D41A00202D
:100ED0007F2101400148405C7047C046D51A002080
:100EE00080B510480179042908D0022911D00129C0
:100EF0000ED1811D0D4800F0E8FE80BDC2787F2133
:100F000011404279084B5A54821D084800F00CFFEA
:100F100080BDC2787F211140821D044800F061FF2E
:100F200080BDC04684180020D51A0020381B002040
:100F3000F0B581B014460546FF2C3AD81F4E50201C
:100F40003070202030717471E01CB07000918021ED
:100F50000D43F570000A7070062130461F4600F000
:100F6000C1FC0098214600F0BDFC781C022807D285
:100F70001FE0152902D1B07900071CD500F020F838
:100F800000F0C6FC002801D1FFF75CFF80210022A1
:100F9000304600F0D3FC31780628EAD11029E8D198
:100FA000F0788542EAD130790228E7D17079A04201
:100FB000E4D101B0F0BD1020FFF736FF8418002007
:100FC00080B51D48827841780902114300780F28C6
:100FD0000ADC0E2810D00F281DD1002004291DD1B5
:100FE000FFF746FF012080BD102818D0162812D127
:100FF00000F030F8012080BD1048016800290AD0B7
:1010000002686421632A00D801680268511A0160ED
:10101000006800280AD00220FFF766F980BD002092
:101020000629FBD3FFF75CFF012080BD04480021A7
:1010300001701020FFF7F8FE84180020D01A00205D
:10104000DC1A002080B50A46014682201423FFF7EF
:101050006FFF80BD80B50B480178002900D080BDAE
:10106000094905220A700A210170084881784278EE
:1010700012020A4306490A800A88C11C0548FFF784
:10108000DCFD80BDDC1A0020D41A0020841800206A
:10109000DE1A0020C019002010B5082000F0C4FAA4
:1010A0000A48002404700A4804800A4804800A4858
:1010B00004800A4804700A480460FFF7D5FD094817
:1010C0000460094804600948046010BDDC1A00206F
:1010D000E01A0020DE1A0020E21A0020D41A0020B4
:1010E000CC1A0020E41A0020E81A0020EC1A002094
:1010F0000148002101607047E41A0020B0B50D4698
:101100000446206B00280BD000F076FA01462046FA
:10111000884700F071FA00280FD0012800D004465B
:10112000002D06D02046A847002806D0012800D070
:1011300004462046FFF7D4F80120B0BDB0B58EB00C
:101140000C460546686B00280BD000F055FA0146A6
:101150002846884700F050FA002817D0012800D010
:101160000546684638222946FFF767FD686AA96A7E
:1011700004900591002C05D02846A0470146002088
:10118000002903D06846FFF7ABF801200EB0B0BDD0
:10119000B0B50D460446E06A00280BD000F02CFAEA
:1011A00001462046884700F027FA00280FD0012882
:1011B00000D00446002D06D02046A847002806D0BF
:1011C000012800D004462046FFF78AF80120B0BD70
:1011D000F0B587B0029303920591002977D004906F
:1011E0000D9801900C98009000253C4B06952F46D9
:1011F0001E4600F08DFB002855D138206843049C22
:10120000251833461A680121954200D006990691A7
:101210002056002841DA2020285C0221695E0A1A43
:10122000039CA24239DC4118EA888918039A91424A
:1012300033DD04216C5E221A02998A422DDC2018CB
:10124000298940180299884227DD1868854210D004
:10125000186800280DD00198002805D0284601996B
:1012600088473346002818D018680199FFF746FFD1
:1012700008E00098012809D002280ED128460199DB
:10128000FFF786FF3346002807D022E02846019961
:10129000FFF754FF334600281ED17F1CFDB205988E
:1012A0008542A5D300E03346069800060FD01868A3
:1012B00000280CD000F02CFB3146002807D108682C
:1012C0000199FFF71BFF002801D00020306007B014
:1012D000F0BD00201860FAE71D60F8E7E41A00206E
:1012E000F0B589B00C46014602AD1C222846019299
:1012F000FFF7A3FC06CC2068E9802A811A4F6523FA
:101300003B7089B292B24A434243D1084E1C072334
:10131000083C1A4200D10E46314600910426864010
:1013200070181D30B870000A78700321384600F03C
:10133000D9FA2846019900F0D5FAA0683870012141
:10134000384600F0CFFAE06800F056F9B1B200F08C
:10135000C9FA009885B2206900F04EF9294600F0DC
:10136000C1FA09B0F0BDC0468418002070B504462B
:1013700020787F26064000F0CBFA002830D1002EDE
:101380002ED0E06900281DD000F036F90546052E64
:1013900002D1A07E002824D0284601F067FB064633
:1013A00012486521017031461C318170090A417073
:1013B000032100F097FA1C21204600F093FAB1B205
:1013C00028460BE0094800214170652101701C2569
:1013D0008570032100F086FA2046294600F082FA43
:1013E00070BD20462946FFF77BFF70BD84180020A2
:1013F00070B50446002C2CD0164802688A4203D1EE
:10140000154A13685B1C136006680E43124A156880
:10141000002901D0066005E00023036013600F4B34
:101420005B1C1E430068884201D000201060082D1C
:101430000CD30321284601F003FA01229007304320
:10144000002900D03046D107884300E030462946C5
:10145000A04770BDE81A0020EC1A0020FFFFFF7FB4
:10146000F0B581B00D4604460F20044207D0204657
:101470002946FEF711FF0546A8B201B0F0BD1026BF
:101480002640002D42D0002E40D17D2000014E4943
:1014900008604E4F387807281FD00A280AD0002845
:1014A00005D020462946FEF7F7FE00281CD009206B
:1014B000FFF7BAFCFF200630854200D380E04448A5
:1014C000532101708570290A4170032100F00AFA46
:1014D0004048294600F006FA06E0454878440022D4
:1014E00020232946FFF7C6FB00253D703A480580BA
:1014F0003A4805803A4805803A480570A006BBD4B2
:10150000FFF7A0FC200601D500F0A4F8002E0CD1B6
:10151000600650D42D48002101702F4801802F48CB
:1015200001802F4801802F480170294C2B4E2C4FF1
:101530000FE0042802D1FFF79BFC0AE000202349BA
:101540000870254908803080388002E00220FEF7CC
:10155000CBFE00F0DDF9002801D1FFF773FC8021FC
:10156000002520462A4600F0E9F9C11EA2786378DA
:101570001B0213439942E1D11A490978002902D08C
:10158000FFF71EFDE5E721780F29D2D0102904D0FE
:101590001629DBD1FFF75EFD04E0062800D26BE7D9
:1015A000FFF79EFC30880028D3D010480068064919
:1015B0000860358860E7094800880B4945185BE7F3
:1015C0000220FFF731FCC046D01A0020DC1A0020B0
:1015D00084180020C0190020E01A0020DE1A002024
:1015E000E21A0020D41A0020FBFF0000CC1A0020D1
:1015F00065FBFFFF7047000080B50449884204D3B3
:101600000349884201D200F005F880BD0000D0C037
:10161000C02CD0C07A460249C91C891A401A7047AA
:101620001516D0C001DF704780B582B00090074822
:101630006946FFF7F7FF01AA11600549884201D109
:1016400002B080BD0420FFF7EFFBC0463701006009
:10165000C601009080B582B0064801A9FFF7E2FFFD
:101660006A4611600449884201D102B080BD04205D
:10167000FFF7DAFB00020060F102009080B584B051
:1016800002910190074801A9FFF7CCFF03AA11605E
:101690000549884202D1039804B080BD0420FFF7B9
:1016A000C3FBC0462C0500606705009080B586B07E
:1016B00001AF0FC7074801A9FFF7B4FF05AA1160E2
:1016C0000549884202D1059806B080BD0420FFF785
:1016D000ABFBC046ED2A0060492A009080B588B077
:1016E00000AF0FC70A9804900B9805900C980690CD
:1016F00007486946FFF796FF07AA11600549884227
:1017000002D1079808B080BD0420FFF78DFBC046CA
:10171000F1360060E736009080B586B001AF0FC7A4
:10172000074801A9FFF77EFF05AA11600549884215
:1017300002D1059806B080BD0420FFF775FBC046B6
:10174000FB3C0060D83C009080B586B001AF0FC76D
:10175000074801A9FFF766FF05AA116005498842FD
:1017600002D1059806B080BD0420FFF75DFBC0469E
:101770009F3D00601D3D009080B586B001AF0FC752
:10178000064801A9FFF74EFF05AA116004498842E7
:1017900001D106B080BD0420FFF746FB3E3E00604D
:1017A000C23E009080B588B001AF0FC70A9805907F
:1017B0000B980690064801A9FFF734FF07AA1160AD
:1017C0000449884201D108B080BD0420FFF72CFBFA
:1017D0004D4200603E42009080B586B001AF0FC719
:1017E000064801A9FFF71EFF05AA116004498842B7
:1017F00001D106B080BD0420FFF716FB4543006011
:101800008C43009080B586B001AF0FC7064801A990
:10181000FFF708FF05AA11600449884201D106B00C
:1018200080BD0420FFF700FBE944006019440090EC
:1018300080B584B002910190074801A9FFF7F2FE3C
:1018400003AA11600549884202D1039804B080BD03
:101850000420FFF7E9FAC04648460060FA460090C7
:1018600080B584B002910190064801A9FFF7DAFE25
:1018700003AA11600449884201D104B080BD04204C
:10188000FFF7D2FAA4470060CB47009080B582B042
:10189000009007486946FFF7C5FE01AA1160054997
:1018A000884201D102B080BD0420FFF7BDFAC046D6
:1018B000E15F00606F5F009080B582B000900748E4
:1018C0006946FFF7AFFE01AA11600549884202D1BF
:1018D000019802B080BD0420FFF7A6FA58610060AD
:1018E0001F61009080B584B002910190064801A963
:1018F000FFF798FE03AA11600449884201D104B0A1
:1019000080BD0420FFF790FA1C6E0060F36E00901B
:1019100080B582B0074801A9FFF784FE6A461160CE
:101920000549884202D1009802B080BD0420FFF72B
:101930007BFAC046CF6F00607F6F009080B584B0A7
:1019400000AB07C307486946FFF76CFE03AA1160A6
:101950000549884203D103A8008804B080BD042053
:10196000FFF762FAD17000602B70009002490020EE
:101970000860024908607047341B0020301B0020BB
:1019800010B50748002444704F2101700121817077
:101990000221C1700421FFF7A5FF204610BDC046FB
:1019A0008418002070B582B06D4600246C704F26FC
:1019B0002E700220A8700320E8702C7105212846A3
:1019C000FFF790FF6C702E700120A870E870042162
:1019D0002846FFF787FF204602B070BD10B582B0E1
:1019E00001A8002444704F2101700121817002215F
:1019F000C1700421FFF776FF204602B010BD000041
:101A0000B0B582B0144800240460144804606D46E8
:101A10004F2028706C700520A8700420E870012009
:101A200028716971AC71012A05DC002A0AD0012AEB
:101A30000AD1042006E0022A03D0032A04D102209E
:101A400000E00320694688716846C3710821FFF7EA
:101A500049FF002002B0B0BD341B0020301B002025
:101A600010B582B06846002444704F2202700522EF
:101A700082700422C2700122027141718471C471AA
:101A80000821FFF72FFF204602B010BDB0B582B08D
:101A90000D46684600244470502101700321817076
:101AA000C5704021017144710621FFF71BFF8020A2
:101AB000054201D0074800E0054801687F22154033
:101AC0000122AA400A430260204602B0B0BDC046CF
:101AD000341B0020301B002070B582B00D466846D4
:101AE000002444705021017003218170C57080264C
:101AF000067144710621FFF7F5FE354201D0074813
:101B000000E0054801687F2215400122AA40914368
:101B10000160204602B070BD341B0020301B002045
:101B20008020014201D0064800E0044802787F206E
:101B300001400120884010407047C046341B0020FF
:101B4000301B002010B582B06846002444704F223C
:101B50000270022282700322C27001710521FFF718
:101B6000C1FE204602B010BDB0B582B01C4615467D
:101B7000684650220270C170202101714471E11C3D
:101B80008170090A41700621FFF7ACFE2846214604
:101B9000FFF7A8FE002002B0B0BD10B582B06846C5
:101BA000002444705023037003238370C1703021DC
:101BB000017142710621FFF795FE204602B010BD6B
:101BC00070B515460E4604460220002C11D04D205B
:101BD0008100204600F03AFE002E02D011200001C4
:101BE0002650FC200121215425702046FFF7BEFE1F
:101BF0000020C0B270BD70B50446FC200121215404
:101C00004520800025181720C643A81980690028A0
:101C100006D04068FFF7F0FC024621792046904745
:101C20000836F2D12046FFF7D9FE2046FFF7A8FE7E
:101C3000002070BD0223002A08D00023022805D806
:101C4000C00008184521890042500023D8B27047CF
:101C500080B5FFF7A7FE002080BDF0B581B00C462F
:101C600005464520870000262846314600F075F9D4
:101C7000002807D0E8590068FFF7BEFC0246284656
:101C8000214690470837761C032EEDD1002001B085
:101C9000F0BDF0B581B00C46054645208700002612
:101CA0002846314600F059F9002807D0E859406825
:101CB000FFF7A2FC02462846214690470837761CCB
:101CC000032EEDD1002001B0F0BD70B504462120F7
:101CD000C600A519284600F09EFBF42001212150E2
:101CE00087204000205AF8216050A15D1F20084045
:101CF000022808D001280BD000280ED12046294602
:101D000000F039F90EE02046294600F0FDFA09E01E
:101D10002046294600F0D3FA04E080200140204606
:101D2000FFF7B4FE002070BDF0B583B00292044608
:101D3000019100291DD02546FC354520860000274D
:101D40002046394600F009F900280DD0A0598069D5
:101D5000002809D02978032906D1FFF74DFC034656
:101D600020460199029A984708367F1C032FE7D135
:101D700034E0F4202058032830D1902020588C21C2
:101D8000615822468C3281420AD9091A1160814277
:101D900000D301468AB22046029900F0ADFC1DE056
:101DA0002646FC364520870000252046294600F0BF
:101DB000D4F800280BD0E0590069002807D031780A
:101DC000032904D1FFF718FC01462046884708374D
:101DD0006D1C032DE9D1204600F095FC002003B0D6
:101DE000F0BDF0B581B00446009100291CD0274613
:101DF000FC374520850000262046314600F0ADF82E
:101E000000280CD060594069002808D0397803298F
:101E100005D1FFF7F1FB02462046009990470835AF
:101E2000761C032EE8D150E0F4202058022844D13B
:101E3000E069256AA8420BD913210A01A158491962
:101E4000A150401BE06182B2204600F047FC34E024
:101E5000A6693046294600F0F3FCAE420FD30029B4
:101E60000DD1F82020582746F837864207D20025A2
:101E7000204629462A4600F031FC3D601DE02646FA
:101E8000FC364520870000252046294600F065F8ED
:101E900000280BD0E059C068002807D0317803290A
:101EA00004D1FFF7A9FB01462046884708376D1C7F
:101EB000032DE9D1204600F032FC01200102601818
:101EC000615C012901D100210170002001B0F0BD49
:101ED00070B50446902040212150FC20012222545C
:101EE00021624520860000252046294600F035F86D
:101EF000002807D0A0594068FFF77EFB02462179F1
:101F00002046904708366D1C032DEDD1002070BD92
:101F1000017400207047002070470020704770B5A2
:101F20000446FC20205C032815D1452086000025AE
:101F30002046294600F011F8002808D0A059C069B1
:101F4000002804D0FFF758FB014620468847083692
:101F50006D1C032DECD1002070BD0246002002292B
:101F600008D8C800101845218900415801200029CF
:101F700000D10846704780B54A78042A08DD072A50
:101F80000FDC052A14D0062A1BD100F021F81DE031
:101F9000002A10D0012A17D0032A12D100F03CF9F0
:101FA00014E0082A0AD0092A0BD100F0C4F80DE089
:101FB00000F09BF80AE000F00CF907E000F0F2F8FE
:101FC00004E000F072F901E000F045F9002080BD66
:101FD000B0B582B00D4604466988080A052813DCAE
:101FE00001281CD0022825D003283AD1C8B20228E3
:101FF0003CDC002865D001286DD0022831D11120A9
:1020000000012058C0680EE006281DD0072825D002
:102010000F2826D1112000012058C06903E01120AB
:10202000000120580068FFF7E7FA0246207C01A96A
:10203000904734E0452080002058002821D0217CA2
:10204000002926D0C06A25E0207C002809D145203F
:1020500080002058002804D0406B1BE0207C002822
:1020600010D02046294600F020F928E003282DD082
:10207000042835D00528F4D11120000120588069AA
:10208000D1E70DE04520800020580028E9D0006B02
:1020900000E0806AFFF7B0FA014601A888470146D0
:1020A00001A80288002A0AD0E888002807D08242C6
:1020B00000D3024601A80280204600F0F9FA02B0DF
:1020C000B0BD1120000120584068ACE7112000018C
:1020D00020580069A7E71120000120588068A2E776
:1020E00011200001205840699DE770B5044688889A
:1020F00000280BD1C888002808D148887F260640D0
:10210000FC20205C2546FC35032803D1204600F046
:10211000CCF870BDFE202654F1B22046FFF712FD28
:10212000204600F0F0FA002E02D00220287070BD88
:102130000120287070BD70B50D460446AE78022EA1
:102140001DD2FC20215C2046FC30032907D0022947
:1021500015D1002E22D066600321017009E0002E07
:1021600012D06068B04219D0C1B22046FFF791FD8D
:10217000666020463146FFF770FD02280ED12046EA
:10218000294600F092F870BD022101706660204679
:102190003146FFF77EFD204600F0B5FA204600F0FC
:1021A000B2FA70BD80B5CA88012A0AD1FC22825CCD
:1021B000032A09D0022A04D1002181600146083196
:1021C00003E000F072F880BD011D012200F070FAFA
:1021D00080BDB0B50446FC20205CFE220240022AED
:1021E00016D10120E06041208000215825460C35A1
:1021F0000320002905D0204600F091FAE168022072
:102200000843E06002222046294600F051FAB0BDA2
:10221000204600F04AF8B0BDB0B50D4604466888C7
:10222000012817D14120800001212150287902285E
:102230000DD8C0002018452189004058002806D03C
:102240008068FFF7D9F90246204629469047204684
:1022500000F059FAB0BDB0B50D460446FC20205C34
:10226000FE21014002291BD1688801281CD1412090
:10227000800000212150287902280DD8C0002018A4
:10228000452189004058002806D08068FFF7B4F93E
:102290000246204629469047204600F034FAB0BD59
:1022A0002046294600F001F8B0BD10B50446802153
:1022B000FFF7ECFB00212046FFF7E8FB10BDB0B5AF
:1022C0000D460446FC20205C032817D128790228FB
:1022D00014D8C000201845218900405800280DD08E
:1022E0008068FFF789F90246204629469047E8882A
:1022F000002807D1204600F006FA03E020462946D0
:10230000FFF7D3FF0020B0BDB0B50D4604462878D6
:10231000602202402979202A10D102290ED8C80053
:102320002018452292008058002807D08068FFF7C7
:1023300063F902462046294690476AE068780028FB
:1023400016D001281DD0032863D1FC20205C03286F
:102350001BD16888002807D180200843802803D03B
:102360002046FFF793FB297902294FD8C80040E0A7
:10237000FC20205C032817D0022810D148060AD17F
:1023800047E0FC20205C032827D0022807D18020CA
:10239000084380283DD02046FFF778FB39E02046EF
:1023A0002946FFF782FF34E07F2008400001201813
:1023B0000546843514308022114200D0054620465F
:1023C000FFF7AEFB0121002800D10146296002225F
:1023D0002046294600F06CF91BE06888002818D1D7
:1023E000480613D02046FFF777FB287902280DD83E
:1023F000C0002018452189004058002806D0806878
:10240000FFF7FAF80246204629469047204600F09A
:102410007AF90020B0BD0A7802704A7842708A7852
:10242000CB781B02134343800A794B791B02134379
:1024300083808A79C97909021143C180704770B5D8
:1024400082B00D46044601A9002008806946087044
:102450002A7860211140002910D0202938D16978CC
:102460000A460A3A022A33D302291BD0032919D07B
:1024700020462946FFF719FF022029E069780B2939
:1024800013D00A290ED0062922D16888000A00221A
:1024900021280ED02228114616D101AE304600F078
:1024A00053F80AE0694601220EE0204600F02BF9BD
:1024B0000DE001AE304600F033F801463288E8887E
:1024C000824200D302463280204600F0F1F800201C
:1024D000C0B202B070BDF0B581B0044682210326BF
:1024E000402532462B46FFF78BFA02272046394615
:1024F00032462B46FFF784FA204639462A46FFF734
:102500004CFB002001B0F0BD10B504468221FFF75E
:10251000A7FA02212046FFF7A3FA002010BD000011
:10252000014643208000064A125C09230020002A4D
:1025300000D003460B80002A01D10248784470473E
:10254000381B00204C060000014643208000064A4C
:10255000125C22230020002A00D003460B80002AB0
:1025600001D1024878447047381B00202D06000036
:10257000B0B5144602291BD102214022FFF70DFB02
:102580000C4D2878002813D10220FEF7A1FC02464A
:102590000C4878442146FEF75BFA022808D1012056
:1025A0002870054807210170044800680449088024
:1025B0000020B0BDD41A0020DC1A0020B819002079
:1025C000DE1A0020AFEAFFFF12200880014878449D
:1025D0007047C0463E060000042008800148784449
:1025E0007047C046400600000E200880014878442D
:1025F0007047C046340600000E2008800148784429
:102600007047C046320600000A200880014878441E
:102610007047C046300600000E200880014878440C
:102620007047C046120600000E200880014878441A
:102630007047C0460206000070B504464D20850074
:10264000104800212A46FEF7EFFA002C16D00D4C58
:102650000026204631462A46FEF7E6FA0A49794422
:1026600020463246FFF7ACFA084A7A443046214603
:10267000FFF7E0FA2046FFF7EBFA70BD0148FFF7DD
:10268000BAFA70BD381B0020560500006A0500002C
:1026900029210180014878447047C046B2050000F6
:1026A0000A210180014878447047C046CE050000E9
:1026B000B0B50C46F42102234350132109014450C4
:1026C0008261C261016A914200D80A4693B2002534
:1026D00029462246FFF748FA2846B0BDB0B50C4659
:1026E000016A914200D80A4693B200252946224643
:1026F000FFF73AFA2846B0BD10B500242146FFF78F
:102700004CFA204610BD10B5F4210422425000249A
:10271000214622462346FFF727FA204610BD10B572
:10272000F42105224250002421462246FFF735FAC3
:10273000204610BD002243088B4274D303098B420C
:102740005FD3030A8B4244D3030B8B4228D3030C81
:102750008B420DD3FF22090212BA030C8B4202D323
:102760001212090265D0030B8B4219D300E0090A4B
:10277000C30B8B4201D3CB03C01A5241830B8B4254
:1027800001D38B03C01A5241430B8B4201D34B033D
:10279000C01A5241030B8B4201D30B03C01A5241A2
:1027A000C30A8B4201D3CB02C01A5241830A8B4227
:1027B00001D38B02C01A5241430A8B4201D34B0210
:1027C000C01A5241030A8B4201D30B02C01A524174
:1027D000CDD2C3098B4201D3CB01C01A5241830928
:1027E0008B4201D38B01C01A524143098B4201D362
:1027F0004B01C01A524103098B4201D30B01C01A8D
:102800005241C3088B4201D3CB00C01A5241830806
:102810008B4201D38B00C01A524143088B4201D333
:102820004B00C01A5241411A00D201465241104693
:102830007047FFE701B5002000F006F802BDC04672
:102840000029F7D076E770477047C04610B50022E0
:1028500000F00AF810BDC04610B500F00DF810BD2C
:1028600010B500F04DF810BD130010B50A001900A6
:1028700000F094F810BDC046F0B50F2A37D90D000E
:1028800005430C000300AD0735D11500103D2D099F
:102890002E013618103627681F6067685F60A768CA
:1028A0009F60E7681034DF601033B342F3D10F2428
:1028B00001352D01491914404519032C1DD9002358
:1028C000CE58EE500433E61A032EF9D80323043C05
:1028D000A4080134A4001A402D190919002A05D0B2
:1028E0000023CC5CEC5401339342FAD1F0BD0500D7
:1028F000002AF5D1FAE70500F2E72200F8E7C04622
:10290000F0B588420AD98B18984207D2531E002A84
:1029100003D0CA5CC254013BFBD2F0BD0F2A09D8D8
:102920000500002AF9D00023CC5CEC54013393421B
:10293000FAD1F2E70D0005430C000300AD0729D1E1
:102940001500103D2D092F013F18103726681E6015
:1029500066685E60A6689E60E6681034DE601033CC
:10296000BB42F3D10F2401352D01491914404519FB
:10297000032C11D90023CE58EE500433E61A032E4F
:10298000F9D80323043CA4080134A4002D19091923
:102990001A40C6E70500C6E72200C2E7F0B5830784
:1029A00046D0541E002A42D0CEB20200032502E0D7
:1029B0001A00013C3BD3531C16702B42F8D1032C58
:1029C0002DD9FF220A40150215432A0415430F2C66
:1029D00016D92700103F3F093E01B4461E001A00D9
:1029E00010366644156055609560D5601032B2426D
:1029F000F8D10F2201373F01DB191440032C0ED907
:102A0000261FB608B700BC461A001F1D674420C227
:102A1000BA42FCD103220136B6009B191440002CA7
:102A200005D0C9B21C19197001339C42FBD1F0BD0D
:102A300014000300C3E7C046F0C041464A4653466F
:102A40005C466D4676467EC02838F0C80020704748
:102A500010307CC890469946A246AB46B54608C899
:102A60002838F0C8081C00D10120184710B5040010
:102A700083070AD00378002B23D0032202E00378D7
:102A8000002B1CD001301042F9D102680E4B0F49C7
:102A9000D31893430B420FD1043002680A4BD3186A
:102AA00093430B4208D104300268074BD318934379
:102AB0000B42F1D000E001300378002BFBD1001B6A
:102AC00010BD0020FCE7C046FFFEFEFE8080808037
:102AD0000300000000008000200000000100000052
:102AE00000000000FFFFFF000000000000000000E9
:102AF00000000000000000000000000000000000D6
:102B00000000000000000000070200000C00800030
:102B10000B00000000000000FFFFFF0000000000AD
:102B20000A800000782BD0C00000000000000000E8
:102B30000000000000000000000000000000000095
:102B4000050003000C000700070000000000000063
:102B5000FFFFFF0000000000000007000000000071
:102B60000000000000000000000000000000000065
:102B7000000000000000000057616974696E672062
:102B8000666F72206D6573736167650009211101BD
:102B9000000122220006A0FF0901A101090315007E
:102BA00026FF007508954081080904150026FF00DE
:102BB000750895409108C000C925D0C0D925D0C05E
:102BC000E925D0C0F925D0C00926D0C01926D0C02B
:102BD0002926D0C000000000D724D0C00925D0C0CD
:102BE0003F24D0C0000000000000000000000000F2
:102BF0007125D0C0000000000000000000000000AF
:102C00009126D0C09126D0C09126D0C0A126D0C098
:102C10001201000200000040972C01000002010296
:102C20000301040309040E034C00650064006700FF
:102C3000650072000E034E0061006E006F00200000
:102C400053000A033000300030003100090229002F
:102C5000010102C032090400000203000002092140
:102C6000110100012222000705820340000107052F
:102C700002034000010000000A06000200000040BC
:102C80000100000000000000000000000000000043
:102C90000000000000000000000000000000000034
:102CA0000000000000000000000000000000000024
:102CB0000000000000000000000000000000000014
:04000005C0D0000166
:00000001FF
